:100000000C94DC000C9404010C9404010C94040185
:100010000C9404010C9404010C9404010C9404014C
:100020000C9404010C9404010C9402030C947403CA
:100030000C9404010C9404010C9404010C9404012C
:100040000C9404010C9404010C9404010C9404011C
:100050000C9404010C9404010C9404010C94A80663
:100060000C9404010C94D8050C94B2050C94040172
:100070000C9404010C9404010C9404010C940401EC
:100080000C9404010C9404010C9404010C940401DC
:100090000C9404010C9404010C9404010C940401CC
:1000A0000C9404010C9404010C94040135063806E8
:1000B00027062B062F065906590659063C06400608
:1000C00044064A064E06590654060000000200097E
:1000D0000F0000030401000C0000000000000000FD
:1000E000000000000000000000080B0002020200F7
:1000F00000090400000102020000052400100105AF
:1001000024010101042402060524060001070581DB
:100110000310004009040100020A00000007050264
:100120000240000007058302400000040309041296
:10013000010002EF02014041233680000101020369
:100140000141726475696E6F204C4C4300555342F7
:1001500020494F20426F61726400000000002500BA
:1001600028002B002E003100000000002400270092
:100170002A002D00300004080201104080401020A9
:10018000408040800802040180402010020110805D
:100190001020404020040404040403040502020269
:1001A0000204030202020206060606060604040210
:1001B000020204045F0A480A11241FBECFEFDAE0EE
:1001C000DEBFCDBF11E0A0E0B1E0E6E7F6E102C09E
:1001D00005900D92A835B107D9F722E0A8E5B1E066
:1001E00001C01D92AF3BB207E1F710E0CBEDD0E0CC
:1001F00004C02197FE010E94280BCA3DD107C9F710
:100200000E94BA080C94200B0C94000040916501E8
:1002100050916601209163013091640142175307A8
:10022000B4F49091E8009570E1F39091E80092FDAC
:1002300019C08093F100809165019091660101964B
:100240008F739927892B19F48EEF8093E8008091A2
:100250006501909166010196909366018093650116
:1002600081E0089580E00895DF92EF92FF920F936E
:100270001F93CF93DF93D82EF92EE42E062F10E094
:10028000C8010196880F0E94060183E00E940601C2
:10029000CD2DDF2D0C0F1D1FC017D10789F0E7FEF4
:1002A00003C0FE01849101C088810E940601F82EDE
:1002B00080E00E9406018F2121968111EDCF01C0BF
:1002C00081E0DF91CF911F910F91FF90EF90DF9030
:1002D0000895DF92EF92FF920F931F93CF93DF93D6
:1002E000D82E8A017B01E40EF51EEB01CE15DF0549
:1002F00071F0D7FE03C0FE01849101C088810E9485
:10030000060121968111F2CF8FEF9FEF01C0C80146
:10031000DF91CF911F910F91FF90EF90DF900895A3
:10032000615030F02091F100FC0120830196F8CF5C
:10033000289884E680936B010895CF92DF92EF9224
:10034000FF920F931F93CF93DF936C017A018B0180
:10035000C0E0D0E0CE15DF0581F0D8016D918D01B0
:10036000D601ED91FC910190F081E02DC601099537
:10037000892B11F02196EECF7E01C701DF91CF913D
:100380001F910F91FF90EF90DF90CF900895FC01A7
:10039000538D448D252F30E0842F90E0821B930BEA
:1003A000541710F0CF96089501970895FC01918D90
:1003B000828D981761F0828DDF01A80FB11D5D96C7
:1003C0008C91928D9F5F9F73928F90E008958FEF35
:1003D0009FEF0895FC01918D828D981731F0828DE9
:1003E000E80FF11D858D90E008958FEF9FEF089540
:1003F000FC01918D228D892F90E0805C9F4F821BA4
:1004000091098F7399270895FC01848DDF01A80F4E
:10041000B11DA35ABF4F2C91848D90E001968F732C
:100420009927848FA689B7892C93A089B1898C914B
:1004300082748C93938D848D981306C00288F389FF
:10044000E02D80818F7D80830895EF92FF920F933E
:100450001F93CF93DF93EC0181E0888F9B8D8C8D70
:10046000981305C0E889F989808185FD26C0F62E9C
:100470000B8D10E00F5F1F4F0F731127E02E8C8D37
:10048000E8120CC00FB607FCFACFE889F989808121
:1004900085FFF5CFCE010E940402F1CF8B8DFE01C6
:1004A000E80FF11DE35AFF4FF0829FB7F8940B8FCE
:1004B000EA89FB898081806209C09FB7F894EE8940
:1004C000FF896083E889F9898081827480839FBF76
:1004D00081E090E0DF91CF911F910F91FF90EF901D
:1004E0000895CF93DF93EC01888D8823C9F0EA89C2
:1004F000FB89808185FD05C0A889B9898C9186FD1D
:100500000FC00FB607FCF5CF808185FFF2CFA88919
:10051000B9898C9185FFEDCFCE010E940402E7CF0F
:10052000DF91CF9108958DE691E00E94F80121E0DE
:10053000892B09F420E0822F089580E090E0892B38
:1005400029F00E94930281110C94000008950895EF
:1005500080E090E008953FB7F89480915D0190911C
:100560005E01A0915F01B091600126B5A89B05C016
:100570002F3F19F00196A11DB11D3FBFBA2FA92F22
:10058000982F8827820F911DA11DB11DBC01CD019F
:1005900042E0660F771F881F991F4A95D1F708958B
:1005A0000F931F93CF93DF931F92CDB7DEB782E0F7
:1005B000898342E450E069EE70E080E80E946901BE
:1005C0000E94A608DC0112960D911C91139701154B
:1005D000110589F0D801ED91FC910280F381E02DA5
:1005E000BE016F5F7F4FC801099597FD04C0F801F8
:1005F00000851185ECCF89810F90DF91CF911F91FC
:100600000F9108951F920F920FB60F9211248F939E
:100610009F938091E1009091E100937F9093E1009E
:1006200083FF0FC01092E90091E09093EB001092CD
:10063000EC0092E39093ED0010926C0198E090939F
:10064000F00082FF20C093E09093E9009091F200C7
:10065000992319F09AE39093E80090916901992306
:1006600039F090916901915090936901992389F132
:1006700090916B01992339F090916B019150909377
:100680006B01992341F184FF10C08091E2008E7EBE
:1006900081608093E2008091E1008F7E8093E10091
:1006A00080916A018E7E806111C080FF16C08091AA
:1006B000E2008E7E80618093E2008091E1008E7E78
:1006C0008093E10080916A018E7E816080936A014F
:1006D00004C05D9ACDCF289AD6CF9F918F910F906D
:1006E0000FBE0F901F9018951F920F920FB60F928A
:1006F0001124CF92DF92EF92FF920F931F932F93CB
:100700003F934F935F936F937F938F939F93AF9399
:10071000BF93EF93FF93CF93DF93CDB7DEB76C9783
:10072000DEBFCDBF1092E9008091E80083FFFBC1DE
:1007300068E0CE0145960E94900182EF8093E80028
:100740008D8987FF05C09091E80090FFFCCF03C022
:100750009EEF9093E800982F907609F0C6C09E898E
:100760004F89588D2F89F88C91110CC0803829F44D
:10077000809168018093F10002C01092F100109204
:10078000F10045C1913051F4811141C14130510511
:1007900009F03DC1809168018D7F0BC0933061F4F9
:1007A000811135C14130510509F031C18091680195
:1007B0008260809368012BC1953049F48091E800F4
:1007C00080FFFCCF822F80688093E30020C19630A9
:1007D00009F05EC00B8D1C8D22E01092E900109292
:1007E000660110926501F21232C0109264011092FB
:1007F00063010E94D00299E0BE016F5F7F4FDB0171
:10080000E92F1D92EA95E9F79983FA8291E09E8398
:1008100090EA98879AEF9987209165013091660157
:10082000275F3F4F3C832B838D831092E90010920A
:10083000660110926501109364010093630149E021
:1008400050E080E00E9469010E94D002E0C0109355
:100850006401009363010E94A608DC0112960D91C9
:100860001C9113970115110509F4BBC0D801ED9136
:10087000FC910480F581E02DBE016B5E7F4FC801C5
:100880000995009709F0C7C0F80100851185EACFE6
:10089000973009F445C1983021F481E08093F1004C
:1008A000B6C0993009F0B3C0837009F039C1EFE1E7
:1008B000F1E081E031E096E32081211109C08EE76B
:1008C0008093EA001092EA008F8980936C019FC0A8
:1008D0008093E9003093EB0021912093EC009093FA
:1008E000ED008F5F873041F7EACF8B8D9C8D1092A2
:1008F000E900109266011092650190936401809363
:100900006301898D811153C08E899D89913A49F483
:10091000813209F005C147E050E064E071E080E019
:10092000BBC0913209F0FCC0833269F48F89988D85
:10093000A0E0B0E08093000190930101A093020138
:10094000B093030164C0803269F48091E80082FFB3
:10095000FCCF67E084E091E00E9490018BEF8093F0
:10096000E80055C0823209F052C08F8980930B0194
:10097000EEEFFFE7859194918B3F9C4D19F0E0E0FD
:10098000F8E002C0EEEFFAE08091040190910501D9
:10099000A0910601B0910701803B9440A105B105EB
:1009A00009F09EC080910B0180FF79C099C00E9420
:1009B000A608FC01028113810115110509F4B0C0DC
:1009C000D801ED91FC910190F081E02DBE016B5EAC
:1009D0007F4FC801099581111AC0F8010085118562
:1009E000EBCFF1E0FF1609F44EC0F3E0FF1298C020
:1009F0008F89882309F44AC0823089F440E86CE08A
:100A00008DE491E00E943401882309F489C08EEFBF
:100A10008093E80088C018161906CCF381C0813095
:100A200029F440E86BE081E491E0ECCF833009F0F9
:100A300077C00E94A608DC011296ED90FC901397F7
:100A40008E010F5F1F4F6801E114F10479F0D701A7
:100A5000ED91FC910680F781E02DB801C701099561
:100A6000080F111DF701E084F184EECFD8011C922C
:100A7000F60101900020E9F73197BF016C197D095B
:100A800040E0C601BFCF6FE271E002C06BE271E0EF
:100A9000FB01449150E080E80E946901B8CFEE3F2D
:100AA0002AE0F20751F0808191818737A7E79A0702
:100AB00021F09093FF0A8093FE0A87E797E79183DE
:100AC000808380916000809367019BE088E10FB68E
:100AD000F894A895809360000FBE9093600097CF24
:100AE000808191818737974709F091CFA8958091B0
:100AF000600088618093600080916701809360004E
:100B0000EE3FBAE0FB0739F08091FE0A9091FF0AB0
:100B1000918380837CCF1092FF0A1092FE0A77CFD8
:100B200081E28093EB006C960FB6F894DEBF0FBEA7
:100B3000CDBFDF91CF91FF91EF91BF91AF919F9189
:100B40008F917F916F915F914F913F912F911F9165
:100B50000F91FF90EF90DF90CF900F900FBE0F900E
:100B60001F9018951F920F920FB60F9211242F937A
:100B70003F934F935F936F937F938F939F93AF9325
:100B8000BF93EF93FF938DE691E00E940402FF91E3
:100B9000EF91BF91AF919F918F917F916F915F91F5
:100BA0004F913F912F910F900FBE0F901F9018956E
:100BB0001F920F920FB60F9211242F938F939F9332
:100BC000EF93FF93E0917D01F0917E018081E091B0
:100BD0008301F091840182FD12C090818091860191
:100BE0008F5F8F7320918701821751F0E09186010A
:100BF000F0E0E359FE4F958F8093860101C080811C
:100C0000FF91EF919F918F912F910F900FBE0F90B9
:100C10001F901895362F90E0FC01E653FF4F44914A
:100C2000FC01EA58FE4F2491FC01EB56FE4F8491E3
:100C3000882309F452C04423E1F150E0FA013197CE
:100C4000EF30F105B0F5EA5AFF4F0C94280B909164
:100C500080009F7707C0909180009F7D03C0909196
:100C60008000977F9093800024C094B59F7702C046
:100C700094B59F7D94BD1DC0909190009F7707C053
:100C8000909190009F7D03C090919000977F9093EA
:100C900090000FC09091C0009F7703C09091C0005A
:100CA0009F7D9093C00005C09091C200977F909364
:100CB000C200E82FF0E0EE0FFF1FE65AFE4FA591AD
:100CC000B4919FB7F894311104C08C9120952823DA
:100CD00002C0EC912E2B2C939FBF08958F929F9270
:100CE000AF92BF92CF92DF92EF92FF926B017C01A5
:100CF0000E94AB024B015C01C114D104E104F10478
:100D0000F1F00E94AB02DC01CB0188199909AA0914
:100D1000BB09883E9340A105B10570F321E0C21ADA
:100D2000D108E108F10888EE880E83E0981EA11C26
:100D3000B11CC114D104E104F10419F7DDCFFF9017
:100D4000EF90DF90CF90BF90AF909F908F900895DD
:100D50001F920F920FB60F9211242F933F938F93F0
:100D60009F93AF93BF938091590190915A01A091A5
:100D70005B01B0915C013091580123E0230F2D37C6
:100D800020F40196A11DB11D05C026E8230F02968F
:100D9000A11DB11D209358018093590190935A01D0
:100DA000A0935B01B0935C0180915D0190915E0125
:100DB000A0915F01B09160010196A11DB11D8093CA
:100DC0005D0190935E01A0935F01B0936001BF91BC
:100DD000AF919F918F913F912F910F900FBE0F90E8
:100DE0001F90189520916C01211103C08FEF9FEF88
:100DF00008955FB7F89422E02093E9002091F20073
:100E000030E01216130614F421E030E0422FFC010A
:100E100084E6415038F0289880936B019091F1005E
:100E20009193F7CF2115310521F08091F2008823AD
:100E300019F05FBFC90108958BE68093E800F9CFF0
:100E40002FB7F89483E08093E9009091E800892F10
:100E5000807295FF04C09091F20080E4891B2FBF3F
:100E60000895CF93DF931F92CDB7DEB76983DC017E
:100E7000ED91FC910280F381E02D41E050E0BE0154
:100E80006F5F7F4F09950F90DF91CF91089583E0B9
:100E90008093E9008091F200882319F08AE380931F
:100EA000E80008950E94200790E00895CF93DF9313
:100EB0001F92CDB7DEB7FC018485958597FD05C0EF
:100EC0002FEF3FEF358724870BC0CE0101960E949C
:100ED000F206019719F4898190E002C08FEF9FEF2D
:100EE0000F90DF91CF9108950F931F93CF93DF93CE
:100EF0001F92CDB7DEB78C01FC018485958597FFE5
:100F00000EC0CE0101960E94F206019719F4898164
:100F100090E002C08FEF9FEFF80195878487F8017A
:100F2000848595850F90DF91CF911F910F91089542
:100F3000FC018485958597FD0BC09FB7F89482E0EE
:100F40008093E9008091F2009FBF90E001960895A0
:100F50009FB7F89482E08093E9008091F2009FBFF0
:100F600090E008958EBD00000DB407FEFDCF8EB554
:100F700008958F929F92AF92BF92CF92DF92EF929D
:100F8000FF920F931F93CF93DF936C017B018A0134
:100F900080910B01882309F45CC080916C01882347
:100FA00009F457C080916A0180FF05C08091E0007C
:100FB00082608093E000E801B12C8AEFA82E93E0D4
:100FC000892E2AE3922E209711F4BB20D9F10E949A
:100FD000200781110AC0AA94AA20D9F161E070E02B
:100FE00080E090E00E946E06EECF282F30E0C2171E
:100FF000D3070CF48C2F9FB7F8948092E9002091CE
:10100000E80025FF1DC0282F30E0C21BD30BF701DD
:10101000815020F041914093F100FACFE20EF31E8F
:10102000BB2019F09092E8000AC08091E80085FD8D
:1010300007C09092E800BB24B394209709F0B12C2C
:101040009FBFC1CF5D9884E6809369011016110699
:1010500044F081E090E0F6019383828380E090E0A9
:1010600001C0C801DF91CF911F910F91FF90EF90C8
:10107000DF90CF90BF90AF909F908F9008950E9487
:10108000230B1F93CF93DF93C82F162FD72F60E02A
:10109000809160020E940A068C2F80680E94B2072D
:1010A000812F0E94B20761E0809160020E940A06CF
:1010B00080916202882321F08BE090E00197F1F7A4
:1010C00060E0809160020E940A0681E08C0F8068D7
:1010D0000E94B2078D2F0E94B20761E080916002EA
:1010E000DF91CF911F910C940A0690E0FC01EA5821
:1010F000FE4F2491FC01EB56FE4F8491882399F01A
:1011000090E0880F991FFC01E859FE4FA591B4911A
:10111000FC01E65AFE4F859194918FB7F894EC91BB
:10112000E22BEC938FBF0895009769F0FC010190CA
:101130000020E9F73197AF01481B590BBC018DE640
:1011400091E00C949D0180E090E008958091670209
:1011500081110DC082E08093630284E08093640279
:10116000109266021092650281E08093670283E626
:1011700092E00895789484B5826084BD84B58160DE
:1011800084BD85B5826085BD85B5816085BD809152
:101190006E00816080936E001092810080918100CA
:1011A00082608093810080918100816080938100C2
:1011B00080918000816080938000809191008260A6
:1011C0008093910080919100816080939100809143
:1011D00090008160809390008091C1008460809332
:1011E000C1008091C10082608093C1008091C100E4
:1011F00081608093C1008091C30081608093C300AF
:101200008091C00082608093C0008091C2008160A4
:101210008093C20080917A00846080937A008091EC
:101220007A00826080937A0080917A008160809356
:101230007A0080917A00806880937A0010926C0125
:101240001092680110926A018091D70081608093AA
:10125000D70080EA8093D80089B5806189BD89B5BF
:10126000826089BD09B400FEFDCF61E070E080E0DE
:1012700090E00E946E068091D8008F7C8061809300
:10128000D8008091E000807F8093E0008091E100B1
:101290008E7E8093E1008DE08093E200559A209A43
:1012A000E0917D01F0917E0182E08083E0917901FF
:1012B000F0917A011082E0917B01F0917C0180E154
:1012C000808310928501E0918101F091820186E096
:1012D0008083E0917F01F091800180818061808333
:1012E000E0917F01F0918001808188608083E091AE
:1012F0007F01F0918001808180688083E0917F018F
:10130000F091800180818F7D8083C8E1D1E082E10E
:10131000E82E81E0F82E0CE011E0C88022968C2D9A
:101320000E947508F701D080F2E0EF0EF11C8D2DC0
:101330000E947508F80180810E5F1F4F0E9475089A
:1013400061E08C2D0E940A0661E08D2D0E940A0644
:10135000F1E0CE31DF0709F78CB58C608CBD87E0FA
:101360000E94750860E087E00E940A0664E670E06B
:1013700080E090E00E946E0661E087E00E940A062D
:1013800064E670E080E090E00E946E0662E07EEB32
:101390008EE30E94410862E370E080E090E00E94EA
:1013A0006E0664E670E080E090E00E946E0666E003
:1013B00071E088E30E94410862E370E080E090E021
:1013C0000E946E0664E670E080E090E00E946E0687
:1013D0006BEF7FE180E20E94410864E670E080E00C
:1013E00090E00E946E066EEF7FE182E20E9441086B
:1013F00064E670E080E090E00E946E06C1E0DFE10C
:1014000010922B028DE691E00E94F80120912B02B0
:101410001816190664F521112AC08DE691E00E9484
:10142000D601909162019923E9F0E09161018E3338
:1014300071F0AE2FB0E0A55FBD4F8C93EF5FE0324F
:1014400018F4E0936101DECFD0936101DBCFF0E0CF
:10145000E55FFD4F10821092620110926101C0930E
:101460002B02D0CF8C3371F6C0936201CBCF2223F5
:1014700061F089E491E00E9494088BE092E00E9480
:10148000940884E591E00E9494080E949D02B8CFE0
:1014900060E071E08AE30E9441089FB7F894809170
:1014A0000A02882319F0815080930A0280910A026F
:1014B000811103C08CB58F7B8CBD9FBF0895CF93E6
:1014C000109272021092710288EE93E0A0E0B0E0F8
:1014D0008093730290937402A0937502B093760286
:1014E00029E231E03093700220936F022FEF3FEF3B
:1014F00030937C0220937B021092700110926F0156
:101500008093710190937201A0937301B093740161
:101510008BE391E090936E0180936D018DEC90E0F0
:1015200090937A01809379018CEC90E090937C0108
:1015300080937B0188EC90E090937E0180937D0105
:1015400089EC90E09093800180937F018AEC90E099
:1015500090938201809381018EEC90E090938401BE
:101560008093830110928601109287011092880166
:101570001092890185E090E090936102809360026F
:10158000CFB7F89480910A02811124C0E6EAF1E015
:101590008491E7E8F1E09491E82FF0E0EE0FFF1F6F
:1015A000E859FE4FA591B491EC91E92321F461E053
:1015B00081E10E940A0681E10E9475088CB5806174
:1015C0008CBD8CB580648CBD8FE00E94750880E175
:1015D0000E94750880910A028F5F80930A02CFBF34
:1015E00085E00E9475088CB58F7D8CBD8CB58C60B4
:1015F0008CBD8CB58C7F81608CBD8DB58E7F8DBD93
:1016000061E085E00E940A061092620260E080912B
:1016100060020E940A0680916202882321F08BE01A
:1016200090E00197F1F761E0809160020E940A0664
:101630008DE00E94750860E08DE0CF910C940A0661
:10164000F8940C942E0B81E090E0F8940C942E0BFF
:10165000EE0FFF1F0590F491E02D099410E0CBED03
:10166000D0E004C0FE010E94280B2196CC3DD1079A
:06167000C9F7F894FFCF5A
:10167600FFFFFFFF00E10000000000000B00090073
:101686000C000A000200040003000800060000C166
:101696008081000000000000003107B907520747AB
:1016A600079807560774070000000025029D01C72A
:1016B600017102F801D601EA015265636569766532
:0816C600643A20000D0A000047
:00000001FF
