:100000000C94DC000C9404010C9404010C94040185
:100010000C9404010C9404010C9404010C9404014C
:100020000C9404010C9404010C9460080C94D20804
:100030000C9404010C9404010C9404010C9404012C
:100040000C9404010C9404010C9404010C9404011C
:100050000C9404010C9404010C9404010C94D50537
:100060000C9404010C941A050C94F4040C940401EF
:100070000C9404010C9404010C9404010C940401EC
:100080000C9404010C9404010C9404010C940401DC
:100090000C9404010C9404010C9404010C940401CC
:1000A0000C9404010C9404010C94040177057A0566
:1000B00069056D0571059B059B059B057E05820500
:1000C00086058C0590059B05960500000002000939
:1000D0000F0000030401000C0000000000000000FD
:1000E000000000000000000000080B0002020200F7
:1000F00000090400000102020000052400100105AF
:1001000024010101042402060524060001070581DB
:100110000310004009040100020A00000007050264
:100120000240000007058302400000040309041296
:10013000010002EF02014041233680000101020369
:100140000141726475696E6F204C4C4300555342F7
:1001500020494F20426F61726400000000002500BA
:1001600028002B002E003100000000002400270092
:100170002A002D00300004080201104080401020A9
:10018000408040800802040180402010020110805D
:100190001020404020040404040403040502020269
:1001A0000204030202020206060606060604040210
:1001B00002020404700D590D11241FBECFEFDAE0C6
:1001C000DEBFCDBF11E0A0E0B1E0EAE3F1E202C0A2
:1001D00005900D92A639B107D9F722E0A6E9B1E062
:1001E00001C01D92AA3DB207E1F710E0CBEDD0E0CF
:1001F00004C02197FE010E948A10CA3DD107C9F7A9
:100200000E94100B0C94240E0C940000CF92DF92ED
:10021000EF92FF920F931F93CF93DF936C017A01BC
:100220008B01C0E0D0E0CE15DF0581F0D8016D91E3
:100230008D01D601ED91FC910190F081E02DC60178
:100240000995892B11F02196EECF7E01C701DF9130
:10025000CF911F910F91FF90EF90DF90CF90089575
:10026000FC01538D448D252F30E0842F90E0821BBC
:10027000930B541710F0CF96089501970895FC0141
:10028000918D828D981761F0828DDF01A80FB11DCD
:100290005D968C91928D9F5F9F73928F90E00895F1
:1002A0008FEF9FEF0895FC01918D828D981731F0AB
:1002B000828DE80FF11D858D90E008958FEF9FEFFF
:1002C0000895FC01918D228D892F90E0805C9F4FD5
:1002D000821B91098F7399270895FC01848DDF019A
:1002E000A80FB11DA35ABF4F2C91848D90E00196A9
:1002F0008F739927848FA689B7892C93A089B18998
:100300008C9182748C93938D848D981306C002888F
:10031000F389E02D80818F7D80830895EF92FF9295
:100320000F931F93CF93DF93EC0181E0888F9B8D18
:100330008C8D981305C0E889F989808185FD26C0D8
:10034000F62E0B8D10E00F5F1F4F0F731127E02E5D
:100350008C8DE8120CC00FB607FCFACFE889F9893A
:10036000808185FFF5CFCE010E946D01F1CF8B8D8D
:10037000FE01E80FF11DE35AFF4FF0829FB7F8949A
:100380000B8FEA89FB898081806209C09FB7F8944E
:10039000EE89FF896083E889F9898081827480838E
:1003A0009FBF81E090E0DF91CF911F910F91FF906F
:1003B000EF900895CF93DF93EC01888D8823C9F0E7
:1003C000EA89FB89808185FD05C0A889B9898C915E
:1003D00086FD0FC00FB607FCF5CF808185FFF2CFF9
:1003E000A889B9898C9185FFEDCFCE010E946D015E
:1003F000E7CFDF91CF91089588EA91E00E946101F3
:1004000021E0892B09F420E0822F089580E090E01C
:10041000892B29F00E94FC0181110C9400000895A1
:10042000CF93DF931F92CDB7DEB76983DC01ED91E7
:10043000FC910280F381E02D41E050E0BE016F5F4E
:100440007F4F09950F90DF91CF91089583E08093BE
:10045000E9008091F200882319F08AE38093E80094
:100460000895FC018485958597FD0BC09FB7F8948E
:1004700082E08093E9008091F2009FBF90E00196B6
:1004800008959FB7F89482E08093E9008091F2008C
:100490009FBF90E00895089580E090E008953FB7F1
:1004A000F89480919B0190919C01A0919D01B09145
:1004B0009E0126B5A89B05C02F3F19F00196A11DEE
:1004C000B11D3FBFBA2FA92F982F8827820F911DEA
:1004D000A11DB11DBC01CD0142E0660F771F881F31
:1004E000991F4A95D1F708958F929F92AF92BF922C
:1004F000CF92DF92EF92FF926B017C010E944F023C
:100500004B015C01C114D104E104F104F1F00E943B
:100510004F02DC01CB0188199909AA09BB09883E61
:100520009340A105B10570F321E0C21AD108E1089A
:10053000F10888EE880E83E0981EA11CB11CC1143E
:10054000D104E104F10419F7DDCFFF90EF90DF90C3
:10055000CF90BF90AF909F908F90089561157105D7
:1005600079F0FB0101900020E9F73197AF01461BBC
:10057000570BDC01ED91FC910280F381E02D099491
:1005800080E090E008952F923F924F925F926F9299
:100590007F928F929F92AF92BF92CF92DF92EF9213
:1005A000FF920F931F93CF93DF93CDB7DEB7A29740
:1005B0000FB6F894DEBF0FBECDBF8C014A015B01C0
:1005C000D22E9A01AB01C501B4010E9463108823A9
:1005D00019F063E771E027C024013501E89477F84A
:1005E0002FEF3FEF4FE75FE7C301B2010E946310B7
:1005F00081110DC02FEF3FEF4FE75FE7C301B2015D
:100600000E94990E18161CF467E771E00CC02FEFDA
:100610003FEF4FE75FE4C501B4010E94F10F1816E8
:1006200034F46BE771E0C8010E94AE02BDC02FEF49
:100630003FEF4FE75FECC501B4010E94990E87FDC3
:10064000F0CF20E030E0A901C501B4010E94990E6D
:1006500087FF0FC0D801ED91FC910190F081E02D52
:100660006DE2C80109951C01B7FAB094B7F8B094CF
:1006700002C0212C312CF12C60E070E080E09FE37F
:10068000DF1441F020E030E040E251E40E949E0E91
:10069000F394F6CFA50194010E942D0E4B015C014D
:1006A0000E94100F562E672E782EC92E19A2262FC3
:1006B000372F482F592F7E01B1E2EB0EF11CEAA231
:1006C0004F2CCA01B9012AE030E040E050E00E941E
:1006D0006810605DF70162937F01211531054105C6
:1006E000510579F7BF01C8010E94AE027101E80E01
:1006F000F91EDD2009F457C0652D762D872D9C2D20
:100700000E943F0F9B01AC01C501B4010E942C0E59
:100710004B015C01D801ED91FC910190F081E02D3D
:100720006EE2C8010995E80EF91E20E030E040E2D3
:1007300051E4C501B4010E94F60F4B015C010E9417
:10074000100F9B0140E050E019A22AA0342C562E35
:10075000632E742EC52ECA01B9012AE030E040E0B4
:1007600050E00E946810605DF10162931F01211545
:1007700031054105510579F7BF01C8010E94AE025C
:10078000E80EF91E652D762D872D9C2D0E943F0FBA
:100790009B01AC01C501B4010E942C0E4B015C0110
:1007A000DA94D110C2CFC701A2960FB6F894DEBF7B
:1007B0000FBECDBFDF91CF911F910F91FF90EF90B2
:1007C000DF90CF90BF90AF909F908F907F906F9071
:1007D0005F904F903F902F9008958F929F92AF928D
:1007E000BF92CF92DF92EF92FF920F931F93CF931E
:1007F000DF936C017B018A0180910B01882309F44E
:100800005CC08091A701882309F457C08091A4019E
:1008100080FF05C08091E00082608093E000E801E5
:10082000B12C8AEFA82E93E0892E2AE3922E2097EE
:1008300011F4BB20D9F10E944F0881110AC0AA947B
:10084000AA20D9F161E070E080E090E00E9474029B
:10085000EECF282F30E0C217D3070CF48C2F9FB7B0
:10086000F8948092E9002091E80025FF1DC0282F10
:1008700030E0C21BD30BF701815020F0419140932F
:10088000F100FACFE20EF31EBB2019F09092E800BF
:100890000AC08091E80085FD07C09092E800BB2463
:1008A000B394209709F0B12C9FBFC1CF5D9884E627
:1008B0008093A5011016110644F081E090E0F60146
:1008C0009383828380E090E001C0C801DF91CF91E3
:1008D0001F910F91FF90EF90DF90CF90BF90AF905E
:1008E0009F908F9008950E944F0890E008950F9375
:1008F0001F93CF93DF931F92CDB7DEB78C01FC011E
:100900008485958597FF0EC0CE0101960E9421082F
:10091000019719F4898190E002C08FEF9FEFF801F1
:1009200095878487F801848595850F90DF91CF9115
:100930001F910F910895CF93DF931F92CDB7DEB72C
:10094000FC018485958597FD05C02FEF3FEF358726
:1009500024870BC0CE0101960E942108019719F44B
:10096000898190E002C08FEF9FEF0F90DF91CF91D0
:1009700008954091A1015091A20120919F013091D1
:10098000A00142175307B4F49091E8009570E1F389
:100990009091E80092FD19C08093F1008091A1012F
:1009A0009091A20101968F739927892B19F48EEFEC
:1009B0008093E8008091A1019091A201019690930B
:1009C000A2018093A10181E0089580E00895615023
:1009D00030F02091F100FC0120830196F8CF289897
:1009E00084E68093A60108951F920F920FB60F928E
:1009F00011242F933F934F935F936F937F938F9324
:100A00009F93AF93BF93EF93FF9388EA91E00E9487
:100A10006D01FF91EF91BF91AF919F918F917F9168
:100A20006F915F914F913F912F910F900FBE0F905B
:100A30001F9018951F920F920FB60F9211242F93AB
:100A40008F939F93EF93FF93E091B801F091B901D9
:100A50008081E091BE01F091BF0182FD12C09081C2
:100A60008091C1018F5F8F732091C201821751F075
:100A7000E091C101F0E0E855FE4F958F8093C101F0
:100A800001C08081FF91EF919F918F912F910F90E5
:100A90000FBE0F901F901895362F90E0FC01E65383
:100AA000FF4F4491FC01EA58FE4F2491FC01EB56A4
:100AB000FE4F8491882309F452C04423E1F150E0B1
:100AC000FA013197EF30F105B0F5EA5AFF4F0C9477
:100AD0008A10909180009F7707C0909180009F7D41
:100AE00003C090918000977F9093800024C094B5BC
:100AF0009F7702C094B59F7D94BD1DC090919000DA
:100B00009F7707C0909190009F7D03C090919000C7
:100B1000977F909390000FC09091C0009F7703C083
:100B20009091C0009F7D9093C00005C09091C2003D
:100B3000977F9093C200E82FF0E0EE0FFF1FE65A78
:100B4000FE4FA591B4919FB7F894311104C08C91D8
:100B50002095282302C0EC912E2B2C939FBF089543
:100B60000F931F93CF93DF938C01C0E0D0E0C017A9
:100B7000D107B4F461E08DE00E944C0564E670E0BA
:100B800080E090E00E94740260E08DE00E944C05DD
:100B900064E670E080E090E00E9474022196E7CF66
:100BA000DF91CF911F910F9108951F920F920FB671
:100BB0000F9211242F933F938F939F93AF93BF93E3
:100BC0008091970190919801A0919901B0919A011B
:100BD0003091960123E0230F2D3720F40196A11DBB
:100BE000B11D05C026E8230F0296A11DB11D20935B
:100BF00096018093970190939801A0939901B093E7
:100C00009A0180919B0190919C01A0919D01B091CE
:100C10009E010196A11DB11D80939B0190939C01A3
:100C2000A0939D01B0939E01BF91AF919F918F9131
:100C30003F912F910F900FBE0F901F9018958091AC
:100C4000CC02882321F08BE090E00197F1F7089522
:100C50008091D20281110DC082E08093CE0284E0A7
:100C60008093CF021092D1021092D00281E0809343
:100C7000D2028EEC92E008958EBD00000DB407FE06
:100C8000FDCF8EB508950E94270EDF92EF92FF925E
:100C90000F931F93CF93DF93D82EF92EE42E062FB8
:100CA00010E0C8010196880F0E94B90483E00E94F9
:100CB000B904CD2DDF2D0C0F1D1FC017D10789F0F2
:100CC000E7FE03C0FE01849101C088810E94B9043F
:100CD000F82E80E00E94B9048F2121968111EDCF7A
:100CE00001C081E0DF91CF911F910F91FF90EF90B4
:100CF000DF900895DF92EF92FF920F931F93CF93AF
:100D0000DF93D82E8A017B01E40EF51EEB01CE1590
:100D1000DF0571F0D7FE03C0FE01849101C0888118
:100D20000E94B90421968111F2CF8FEF9FEF01C08D
:100D3000C801DF91CF911F910F91FF90EF90DF904D
:100D400008950F931F93CF93DF931F92CDB7DEB714
:100D500082E0898342E450E069EE70E080E80E941E
:100D60007A060E942806DC0112960D911C911397B9
:100D70000115110589F0D801ED91FC910280F381F4
:100D8000E02DBE016F5F7F4FC801099597FD04C03C
:100D9000F80100851185ECCF89810F90DF91CF910B
:100DA0001F910F910895FF920F931F93CF93DF939D
:100DB000182FF62E072FC6E9D2E060E08CA90E941A
:100DC0004C05812F80680E943C068F2D0E943C06B6
:100DD00061E08CA90E944C050E941F0660E08CA96E
:100DE0000E944C0581E0810F80680E943C06802FA4
:100DF0000E943C0661E08CA9DF91CF911F910F9179
:100E0000FF900C944C0590E0FC01EA58FE4F2491B1
:100E1000FC01EB56FE4F8491882399F090E0880FF7
:100E2000991FFC01E859FE4FA591B491FC01E65AC7
:100E3000FE4F859194918FB7F894EC91E22BEC934F
:100E40008FBF08952F923F924F925F926F927F9241
:100E50008F929F92AF92BF92CF92DF92EF92FF92CA
:100E60000F931F93CF93DF93CDB7DEB7CA57D10946
:100E70000FB6F894DEBF0FBECDBF8CE0ECE0F1E022
:100E8000DE01A359BF4F01900D928A95E1F77E01D3
:100E900021E6E20EF11C8CE0F70111928A95E9F748
:100EA00081E0F7018083838780E3E8E1F1E0DE0100
:100EB000D19601900D928A95E1F79E012F5F3F4FE9
:100EC000690180E3F90111928A95E9F780E090E0E9
:100ED000A8ECB1E489A79AA7ABA7BCA783E393E3E7
:100EE000A3EDBFEB8DA79EA7AFA7B8AB60E0809145
:100EF000CA020E944C058EE30E943C0680E00E94DC
:100F00003C060E941F068E0103591F4F1E01F1E38C
:100F10002F0E311C460126E932E0EB963FAF2EAF93
:100F2000EB9758013CE0A30EB11CCC24CA94D12C01
:100F300080E00E943C06782E80E00E943C06F8018A
:100F400091918F01292F30E040E150E0421B530B7B
:100F5000B60102C0759567954A95E2F7672170E082
:100F6000762F6627682BF70181917F01811121C0BF
:100F70002150310941E050E002C0440F551F2A952D
:100F8000E2F79A0126233723232B99F0F60102C0BA
:100F9000EE0FFF1F9A95E2F76E2B7F2B71956195EF
:100FA000710980E090E00E943F0F9B01AC01505816
:100FB00006C080E090E00E943F0F9B01AC01F10170
:100FC00061917191819191911F01F4014190519032
:100FD000619071904F010E94F60FA30192010E944F
:100FE0002D0EEB96EEADFFADEB9761937193819370
:100FF0009193EB96FFAFEEAFEB970E941F060A1599
:101000001B0509F095CF61E08091CA02C658DF4FF9
:101010000FB6F894DEBF0FBECDBFDF91CF911F9109
:101020000F91FF90EF90DF90CF90BF90AF909F9087
:101030008F907F906F905F904F903F902F900C9487
:101040004C052091A701211103C08FEF9FEF089558
:101050005FB7F89422E02093E9002091F20030E09D
:101060001216130614F421E030E0422FFC0184E64E
:10107000415038F028988093A6019091F100919307
:10108000F7CF2115310521F08091F200882319F066
:101090005FBFC90108958BE68093E800F9CF2FB7B1
:1010A000F89483E08093E9009091E800892F8072A2
:1010B00095FF04C09091F20080E4891B2FBF089532
:1010C0001F920F920FB60F9211248F939F938091CE
:1010D000E1009091E100937F9093E10083FF0FC0C6
:1010E0001092E90091E09093EB001092EC0092E3F3
:1010F0009093ED001092A70198E09093F00082FF8A
:1011000020C093E09093E9009091F200992319F0A8
:101110009AE39093E8009091A501992339F090917A
:10112000A50191509093A501992389F19091A60171
:10113000992339F09091A60191509093A60199239B
:1011400041F184FF10C08091E2008E7E8160809327
:10115000E2008091E1008F7E8093E1008091A40104
:101160008E7E806111C080FF16C08091E2008E7E6D
:1011700080618093E2008091E1008E7E8093E100A7
:101180008091A4018E7E81608093A40104C05D9A49
:10119000CDCF289AD6CF9F918F910F900FBE0F90F1
:1011A0001F9018951F920F920FB60F921124CF9295
:1011B000DF92EF92FF920F931F932F933F934F93E2
:1011C0005F936F937F938F939F93AF93BF93EF93AF
:1011D000FF93CF93DF93CDB7DEB76C97DEBFCDBF64
:1011E0001092E9008091E80083FFFBC168E0CE0126
:1011F00045960E94E70482EF8093E8008D8987FF7F
:1012000005C09091E80090FFFCCF03C09EEF909343
:10121000E800982F907609F0C6C09E894F89588DB6
:101220002F89F88C91110CC0803829F48091A3018A
:101230008093F10002C01092F1001092F10045C1BC
:10124000913051F4811141C14130510509F03DC146
:101250008091A3018D7F0BC0933061F4811135C162
:101260004130510509F031C18091A3018260809322
:10127000A3012BC1953049F48091E80080FFFCCF99
:10128000822F80688093E30020C1963009F05EC011
:101290000B8D1C8D22E01092E9001092A201109299
:1012A000A101F21232C01092A00110929F010E947F
:1012B000A10699E0BE016F5F7F4FDB01E92F1D9210
:1012C000EA95E9F79983FA8291E09E8390EA9887FC
:1012D0009AEF99872091A1013091A201275F3F4F9A
:1012E0003C832B838D831092E9001092A20110920F
:1012F000A1011093A00100939F0149E050E080E01C
:101300000E947A060E94A106E0C01093A0010093FB
:101310009F010E942806DC0112960D911C911397E3
:101320000115110509F4BBC0D801ED91FC910480B1
:10133000F581E02DBE016B5E7F4FC80109950097D6
:1013400009F0C7C0F80100851185EACF973009F48C
:1013500045C1983021F481E08093F100B6C0993006
:1013600009F0B3C0837009F039C1E9E4F1E081E02C
:1013700031E096E32081211109C08EE78093EA00D5
:101380001092EA008F898093A7019FC08093E900A3
:101390003093EB0021912093EC009093ED008F5F50
:1013A000873041F7EACF8B8D9C8D1092E900109227
:1013B000A2011092A1019093A00180939F01898DB9
:1013C000811153C08E899D89913A49F4813209F087
:1013D00005C147E050E064E071E080E0BBC09132BD
:1013E00009F0FCC0833269F48F89988DA0E0B0E0E9
:1013F0008093000190930101A0930201B093030137
:1014000064C0803269F48091E80082FFFCCF67E01D
:1014100084E091E00E94E7048BEF8093E80055C0E0
:10142000823209F052C08F8980930B01EEEFFFE703
:10143000859194918B3F9C4D19F0E0E0F8E002C05B
:10144000EEEFFAE08091040190910501A091060170
:10145000B0910701803B9440A105B10509F09EC001
:1014600080910B0180FF79C099C00E942806FC0181
:10147000028113810115110509F4B0C0D801ED9165
:10148000FC910190F081E02DBE016B5E7F4FC801A1
:10149000099581111AC0F80100851185EBCFF1E0A3
:1014A000FF1609F44EC0F3E0FF1298C08F8988231D
:1014B00009F44AC0823089F440E86CE08DE491E0A0
:1014C0000E944506882309F489C08EEF8093E800C6
:1014D00088C018161906CCF381C0813029F440E881
:1014E0006BE081E491E0ECCF833009F077C00E949B
:1014F0002806DC011296ED90FC9013978E010F5F89
:101500001F4F6801E114F10479F0D701ED91FC91CE
:101510000680F781E02DB801C7010995080F111D5C
:10152000F701E084F184EECFD8011C92F60101901E
:101530000020E9F73197BF016C197D0940E0C60131
:10154000BFCF6FE271E002C06BE271E0FB0144913A
:1015500050E080E80E947A06B8CFEE3F2AE0F2071A
:1015600051F0808191818737A7E79A0721F0909306
:10157000FF0A8093FE0A87E797E791838083809133
:1015800060008093CD029BE088E10FB6F894A895A7
:10159000809360000FBE9093600097CF808191810F
:1015A0008737974709F091CFA895809160008861AF
:1015B000809360008091CD0280936000EE3FBAE09E
:1015C000FB0739F08091FE0A9091FF0A9183808396
:1015D0007CCF1092FF0A1092FE0A77CF81E28093AF
:1015E000EB006C960FB6F894DEBF0FBECDBFDF9157
:1015F000CF91FF91EF91BF91AF919F918F917F918B
:101600006F915F914F913F912F911F910F91FF909B
:10161000EF90DF90CF900F900FBE0F901F90189516
:10162000789484B5826084BD84B5816084BD85B5BD
:10163000826085BD85B5816085BD80916E008160C9
:1016400080936E001092810080918100826080936F
:101650008100809181008160809381008091800071
:1016600081608093800080919100826080939100DE
:1016700080919100816080939100809190008160C1
:10168000809390008091C10084608093C10080911C
:10169000C10082608093C1008091C100816080930D
:1016A000C1008091C30081608093C3008091C0001D
:1016B00082608093C0008091C20081608093C200EC
:1016C00080917A00846080937A0080917A008260B1
:1016D00080937A0080917A00816080937A00809173
:1016E0007A00806880937A001092A7011092A3017B
:1016F0001092A4018091D70081608093D70080EA86
:101700008093D80089B5806189BD89B5826089BD23
:1017100009B400FEFDCF61E070E080E090E00E943F
:1017200074028091D8008F7C80618093D800809172
:10173000E000807F8093E0008091E1008E7E8093C6
:10174000E1008DE08093E200559A209A0E94030701
:1017500060E08DE00E944C05E091B801F091B90184
:1017600082E08083E091B401F091B5011082E091B4
:10177000B601F091B7018FEC80831092C001E09127
:10178000BC01F091BD0186E08083E091BA01F09147
:10179000BB01808180618083E091BA01F091BB013F
:1017A000808188608083E091BA01F091BB018081E3
:1017B00080688083E091BA01F091BB0180818F7DC8
:1017C00080838FEF9FEF909352028093510283E0CA
:1017D0000E9403078AE00E9403078BE00E94030730
:1017E00088E00E94030782E00E94030789E00E94CC
:1017F000030761E083E00E944C0561E08AE00E94FB
:101800004C0561E088E00E944C0561E082E00E94A6
:101810004C0581E090E00E94B0058CB58C608CBDD9
:1018200087E00E94030760E087E00E944C0564E6C1
:1018300070E080E090E00E94740261E087E00E9426
:101840004C0564E670E080E090E00E94740262E083
:101850007EEB8EE30E94D30662E370E080E090E0CE
:101860000E94740264E670E080E090E00E947402DE
:1018700066E071E088E30E94D30662E370E080E0F6
:1018800090E00E94740264E670E080E090E00E94C4
:1018900074026BEF7FE180E20E94D30664E670E0A1
:1018A00080E090E00E9474026EEF7FE182E20E948D
:1018B000D30664E670E080E090E00E94740282E06B
:1018C00090E00E94B005CBE8D1E086ECE82E82E003
:1018D000F82E88EA91E00E946101181619060CF0B2
:1018E000C1C088EA91E00E943F01813391F561E037
:1018F0008DE00E944C0560E083E00E944C0561E0B1
:101900008AE00E944C0560E088E00E944C0561E09E
:1019100082E00E944C0508EE13E061E08BE00E943B
:101920004C0561E089E00E944C05CE010197F1F77A
:1019300060E08BE00E944C0560E089E00E944C056D
:10194000CE010197F1F70150110939F76FE771E006
:1019500034C0823309F044C060E08DE00E944C0541
:1019600060E083E00E944C0560E08AE00E944C0544
:1019700060E088E00E944C0560E082E00E944C0537
:1019800008EE13E061E08BE00E944C0561E089E025
:101990000E944C05CE010197F1F760E08BE00E94B8
:1019A0004C0560E089E00E944C05CE010197F1F7FB
:1019B0000150110939F76AE871E088EA91E00E9464
:1019C000AE0267E871E088EA91E00E94AE0261E051
:1019D00083E00E944C0561E088E00E944C0542C013
:1019E0008136D1F405E010E061E08DE00E944C0505
:1019F00064E670E080E090E00E94740260E08DE0B8
:101A00000E944C0564E670E080E090E00E94740261
:101A10000150110949F726C08A3719F461E08BE0BB
:101A2000DCCF8137F9F40E94220706E912E0F801C1
:101A300041915191619171918F0126E088EA91E085
:101A40000E94C30263E971E088EA91E00E94AE025D
:101A5000F2E0063C1F0759F767E871E088EA91E079
:101A60000E94AE020E94220706E912E0F8014191AD
:101A70005191619171918F0126E085E492E00E947D
:101A8000C30263E971E085E492E00E94AE02E016D1
:101A9000F10661F767E871E085E492E00E94AE022A
:101AA00064E670E080E090E00E9474020E9406020A
:101AB00010CF60E071E08AE30E94D3069FB7F894EC
:101AC00080919502882319F081508093950280912E
:101AD0009502811103C08CB58F7B8CBD9FBF08958B
:101AE000CF931092AB011092AA0188EE93E0A0E090
:101AF000B0E08093AC019093AD01A093AE01B093A0
:101B0000AF0123E531E03093A9012093A8012DEC2A
:101B100030E03093B5012093B4012CEC30E03093E9
:101B2000B7012093B60128EC30E03093B90120933F
:101B3000B80129EC30E03093BB012093BA012AECC4
:101B400030E03093BD012093BC012EEC30E03093A7
:101B5000BF012093BE011092C1011092C2011092E8
:101B6000C3011092C4011092480210924702809360
:101B7000490290934A02A0934B02B0934C0285E62F
:101B800091E090934602809345028FEF9FEF9093F0
:101B900052028093510285E090E09093CB028093B3
:101BA000CA02CFB7F89480919502811124C0E6EA69
:101BB000F1E08491E7E8F1E09491E82FF0E0EE0F96
:101BC000FF1FE859FE4FA591B491EC91E92321F450
:101BD00061E081E10E944C0581E10E9403078CB520
:101BE00080618CBD8CB580648CBD8FE00E94030742
:101BF00080E10E940307809195028F5F8093950298
:101C0000CFBF85E00E9403078CB58F7D8CBD8CB55E
:101C10008C608CBD8CB58C7F81608CBD8DB58E7FCA
:101C20008DBD61E085E00E944C051092CC0260E021
:101C30008091CA020E944C050E941F0661E08091BB
:101C4000CA02CF910C944C05F8940C94901081E04A
:101C500090E0F8940C9490105058BB27AA270E944B
:101C6000440E0C94B70F0E94A90F38F00E94B00FD9
:101C700020F039F49F3F19F426F40C94A60F0EF4CB
:101C8000E095E7FB0C94A00FE92F0E94C80F58F3D2
:101C9000BA17620773078407950720F079F4A6F551
:101CA0000C94EA0F0EF4E0950B2EBA2FA02D0B0129
:101CB000B90190010C01CA01A0011124FF27591B91
:101CC00099F0593F50F4503E68F11A16F040A22F97
:101CD000232F342F4427585FF3CF46953795279508
:101CE000A795F0405395C9F77EF41F16BA0B620B07
:101CF000730B840BBAF09150A1F0FF0FBB1F661F4E
:101D0000771F881FC2F70EC0BA0F621F731F841F90
:101D100048F4879577956795B795F7959E3F08F0B6
:101D2000B0CF9395880F08F09927EE0F9795879578
:101D300008950E947C0F08F481E008950E94B20E7D
:101D40000C94B70F0E94B00F58F00E94A90F40F0FA
:101D500029F45F3F29F00C94A00F51110C94EB0F64
:101D60000C94A60F0E94C80F68F39923B1F3552372
:101D700091F3951B550BBB27AA276217730784079E
:101D800038F09F5F5F4F220F331F441FAA1FA9F334
:101D900035D00E2E3AF0E0E832D091505040E69522
:101DA000001CCAF72BD0FE2F29D0660F771F881F83
:101DB000BB1F261737074807AB07B0E809F0BB0B76
:101DC000802DBF01FF2793585F4F3AF09E3F51058A
:101DD00078F00C94A00F0C94EB0F5F3FE4F3983E67
:101DE000D4F3869577956795B795F7959F5FC9F773
:101DF000880F911D9695879597F90895E1E0660FF4
:101E0000771F881FBB1F621773078407BA0720F06C
:101E1000621B730B840BBA0BEE1F88F7E0950895D5
:101E20000E94D00F88F09F5798F0B92F9927B7518B
:101E3000B0F0E1F0660F771F881F991F1AF0BA956E
:101E4000C9F714C0B13091F00E94EA0FB1E00895D3
:101E50000C94EA0F672F782F8827B85F39F0B93FC5
:101E6000CCF3869577956795B395D9F73EF4909521
:101E70008095709561957F4F8F4F9F4F0895E8949F
:101E800009C097FB3EF490958095709561957F4FC2
:101E90008F4F9F4F9923A9F0F92F96E9BB27939570
:101EA000F695879577956795B795F111F8CFFAF480
:101EB000BB0F11F460FF1BC06F5F7F4F8F4F9F4FB1
:101EC00016C0882311F096E911C0772321F09EE80F
:101ED000872F762F05C0662371F096E8862F70E075
:101EE00060E02AF09A95660F771F881FDAF7880F4F
:101EF0009695879597F90895990F0008550FAA0BA5
:101F0000E0E8FEEF16161706E807F907C0F012160C
:101F10001306E407F50798F0621B730B840B950B0F
:101F200039F40A2661F0232B242B252B21F4089564
:101F30000A2609F4A140A6958FEF811D811D089501
:101F400097F99F6780E870E060E008959FEF80EC6C
:101F5000089500240A94161617061806090608950F
:101F600000240A9412161306140605060895092E75
:101F70000394000C11F4882352F0BB0F40F4BF2BE4
:101F800011F460FF04C06F5F7F4F8F4F9F4F089524
:101F900057FD9058440F551F59F05F3F71F047951A
:101FA000880F97FB991F61F09F3F79F087950895FF
:101FB000121613061406551FF2CF4695F1DF08C01E
:101FC000161617061806991FF1CF8695710561053B
:101FD00008940895E894BB2766277727CB0197F9E3
:101FE00008950E947C0F08F48FEF08950E94091055
:101FF0000C94B70F0E94A90F38F00E94B00F20F088
:10200000952311F00C94A00F0C94A60F11240C949E
:10201000EB0F0E94C80F70F3959FC1F3950F50E02E
:10202000551F629FF001729FBB27F00DB11D639F8A
:10203000AA27F00DB11DAA1F649F6627B00DA11D30
:10204000661F829F2227B00DA11D621F739FB00DD6
:10205000A11D621F839FA00D611D221F749F332746
:10206000A00D611D231F849F600D211D822F762FDF
:102070006A2F11249F5750409AF0F1F088234AF0BC
:10208000EE0FFF1FBB1F661F771F881F9150504028
:10209000A9F79E3F510580F00C94A00F0C94EB0F14
:1020A0005F3FE4F3983ED4F3869577956795B795AF
:1020B000F795E7959F5FC1F7FE2B880F911D9695C9
:1020C000879597F908950E947C0F880B990B0895C6
:1020D000A1E21A2EAA1BBB1BFD010DC0AA1FBB1F2C
:1020E000EE1FFF1FA217B307E407F50720F0A21B9E
:1020F000B30BE40BF50B661F771F881F991F1A940B
:1021000069F760957095809590959B01AC01BD0134
:10211000CF010895EE0FFF1F0590F491E02D099473
:1021200010E0CBEDD0E004C0FE010E948A102196A1
:0A213000CC3DD107C9F7F894FFCFAA
:10213A00FFFFFFFF00E10000000000000E0E0E0E80
:10214A000E0E0E0E0E0E0C0C4F771E3BCDCC4C3CD9
:10215A00CDCC4C3CCDCC4C3CB81E5540B81E55405D
:10216A00B81E55400000003F0000003F0000003F3D
:10217A00295C0F3EBF49533A00C18081000000002C
:10218A000000008E0106013001DA0161013F0153AE
:10219A0001000000001002ED037304260231029BC5
:1021AA000477046E616E00696E66006F766600469B
:1021BA006F7277617264000D0A004261636B776126
:0621CA0072640020000019
:00000001FF
