:100000000C94DB000C9403010C9403010C94030189
:100010000C9403010C9403010C9403010C94030150
:100020000C9403010C9403010C943C050C94AE0554
:100030000C9403010C9403010C9403010C94030130
:100040000C9403010C9403010C9403010C94030120
:100050000C9403010C9403010C9403010C944408C8
:100060000C9403010C9412080C94EC070C940301FB
:100070000C9403010C9403010C9403010C940301F0
:100080000C9403010C9403010C9403010C940301E0
:100090000C9403010C9403010C9403010C940301D0
:1000A0000C9403010C9403010C940301FA03FD0367
:1000B000EC03F003F4031E041E041E0401040504F3
:1000C00009040F0413041E041904000000020009AF
:1000D0000F0000030401000C0000000000000000FD
:1000E000000000000000000000080B0002020200F7
:1000F00000090400000102020000052400100105AF
:1001000024010101042402060524060001070581DB
:100110000310004009040100020A00000007050264
:100120000240000007058302400000040309041296
:10013000010002EF02014041233680000101020369
:100140000141726475696E6F204C4C4300555342F7
:1001500020494F20426F61726400000000002500BA
:1001600028002B002E003100000000002400270092
:100170002A002D00300004040404040304050202D4
:100180000202040302020202060606060606040430
:1001900002020204040408020110408040102040C2
:1001A000804080080204018040201002011080106D
:1001B000204040208E0811241FBECFEFDAE0DEBFC2
:1001C000CDBF11E0A0E0B1E0E6EEF4E102C00590A1
:1001D0000D92AC34B107D9F722E0ACE4B1E001C034
:1001E0001D92A835B207E1F710E0CBEDD0E004C0D6
:1001F0002197FE010E946B0ACA3DD107C9F70E94F0
:10020000CB080C94630A0C94000090E0FC01EB56C0
:10021000FE4F2491FC01EA58FE4F8491882399F007
:1002200090E0880F991FFC01E859FE4FA591B49109
:10023000FC01E65AFE4F859194918FB7F894EC91AA
:10024000E22BEC938FBF089520916A01211103C026
:100250008FEF9FEF08955FB7F89422E02093E900B5
:100260002091F20030E01216130614F421E030E081
:10027000422FFC0184E6415038F0289880936901B0
:100280009091F1009193F7CF2115310521F08091E4
:10029000F200882319F05FBFC90108958BE68093AF
:1002A000E800F9CF2FB7F89483E08093E9009091AC
:1002B000E800892F807295FF04C09091F20080E4DD
:1002C000891B2FBF08958091610181110DC082E0CB
:1002D00080935D0184E080935E0110926001109232
:1002E0005F0181E0809361018DE591E00895CF93F6
:1002F000DF931F92CDB7DEB76983DC01ED91FC91EE
:100300000280F381E02D41E050E0BE016F5F7F4F3E
:1003100009950F90DF91CF91089583E08093E900D4
:100320008091F200882319F08AE38093E800089511
:100330000E94520190E00895CF93DF931F92CDB7B2
:10034000DEB7FC018485958597FD05C02FEF3FEF53
:10035000358724870BC0CE0101960E9424010197A6
:1003600019F4898190E002C08FEF9FEF0F90DF9129
:10037000CF9108950F931F93CF93DF931F92CDB723
:10038000DEB78C01FC018485958597FF0EC0CE01F8
:1003900001960E942401019719F4898190E002C01E
:1003A0008FEF9FEFF80195878487F8018485958505
:1003B0000F90DF91CF911F910F910895FC018485DB
:1003C000958597FD0BC09FB7F89482E08093E90074
:1003D0008091F2009FBF90E0019608959FB7F89436
:1003E00082E08093E9008091F2009FBF90E0089541
:1003F000409157015091580120915501309156017B
:1004000042175307B4F49091E8009570E1F390918E
:10041000E80092FD19C08093F100809157019091FE
:10042000580101968F739927892B19F48EEF8093C9
:10043000E8008091570190915801019690935801DE
:100440008093570181E0089580E00895DF92EF9254
:10045000FF920F931F93CF93DF93D82EF92EE42EA4
:10046000062F10E0C8010196880F0E94F80183E072
:100470000E94F801CD2DDF2D0C0F1D1FC017D107D5
:1004800089F0E7FE03C0FE01849101C088810E94CB
:10049000F801F82E80E00E94F8018F212196811149
:1004A000EDCF01C081E0DF91CF911F910F91FF90BF
:1004B000EF90DF900895DF92EF92FF920F931F93DA
:1004C000CF93DF93D82E8A017B01E40EF51EEB015A
:1004D000CE15DF0571F0D7FE03C0FE01849101C087
:1004E00088810E94F80121968111F2CF8FEF9FEF52
:1004F00001C0C801DF91CF911F910F91FF90EF9044
:10050000DF9008950F931F93CF93DF931F92CDB782
:10051000DEB782E0898342E450E069EE70E080E873
:100520000E945B020E946301DC0112960D911C91F6
:1005300013970115110589F0D801ED91FC91028006
:10054000F381E02DBE016F5F7F4FC801099597FDD4
:1005500004C0F80100851185ECCF89810F90DF91EF
:10056000CF911F910F910895615030F02091F100CB
:10057000FC0120830196F8CF289884E680936901D6
:100580000895CF92DF92EF92FF920F931F93CF9334
:10059000DF936C017A018B01C0E0D0E0CE15DF055E
:1005A00081F0D8016D918D01D601ED91FC91019002
:1005B000F081E02DC6010995892B11F02196EECF2F
:1005C0007E01C701DF91CF911F910F91FF90EF90B6
:1005D000DF90CF900895FC01538D448D252F30E09E
:1005E000842F90E0821B930B541710F0CF96089540
:1005F00001970895FC01918D828D981761F0828D8D
:10060000DF01A80FB11D5D968C91928D9F5F9F7346
:10061000928F90E008958FEF9FEF0895FC01918DE8
:10062000828D981731F0828DE80FF11D858D90E055
:1006300008958FEF9FEF0895FC01918D228D892FF2
:1006400090E0805C9F4F821B91098F7399270895DA
:10065000FC01848DDF01A80FB11DA35ABF4F2C915F
:10066000848D90E001968F739927848FA689B7892E
:100670002C93A089B1898C9182748C93938D848DF5
:10068000981306C00288F389E02D80818F7D8083D6
:100690000895EF92FF920F931F93CF93DF93EC0196
:1006A00081E0888F9B8D8C8D981305C0E889F9892E
:1006B000808185FD26C0F62E0B8D10E00F5F1F4F49
:1006C0000F731127E02E8C8DE8120CC00FB607FCBB
:1006D000FACFE889F989808185FFF5CFCE010E94A4
:1006E0002803F1CF8B8DFE01E80FF11DE35AFF4F78
:1006F000F0829FB7F8940B8FEA89FB898081806232
:1007000009C09FB7F894EE89FF896083E889F98969
:100710008081827480839FBF81E090E0DF91CF91E0
:100720001F910F91FF90EF900895CF93DF93EC010D
:10073000888D8823C9F0EA89FB89808185FD05C001
:10074000A889B9898C9186FD0FC00FB607FCF5CF3B
:10075000808185FFF2CFA889B9898C9185FFEDCF83
:10076000CE010E942803E7CFDF91CF9108958BEB54
:1007700091E00E941C0321E0892B09F420E0822FE4
:10078000089580E090E0892B29F00E94B703811141
:100790000C9400000895089580E090E00895362FAD
:1007A00090E0FC01E653FF4F4491FC01EB56FE4FF5
:1007B0002491FC01EA58FE4F8491882309F452C029
:1007C0004423E1F150E0FA013197EF30F105B0F543
:1007D000EA5AFF4F0C946B0A909180009F7707C0F4
:1007E000909180009F7D03C090918000977F9093AF
:1007F000800024C094B59F7702C094B59F7D94BDBE
:100800001DC0909190009F7707C0909190009F7DB0
:1008100003C090919000977F909390000FC09091AB
:10082000C0009F7703C09091C0009F7D9093C0004F
:1008300005C09091C200977F9093C200E82FF0E02E
:10084000EE0FFF1FE65AFE4FA591B4919FB7F894A3
:10085000311104C08C912095282302C0EC912E2BDD
:100860002C939FBF08953FB7F894809151019091C8
:100870005201A0915301B091540126B5A89B05C027
:100880002F3F19F00196A11DB11D3FBFBA2FA92F0F
:10089000982F8827820F911DA11DB11DBC01CD018C
:1008A00042E0660F771F881F991F4A95D1F7089578
:1008B0008F929F92AF92BF92CF92DF92EF92FF9270
:1008C0006B017C010E9433044B015C01C114D10413
:1008D000E104F104F1F00E943304DC01CB0188193A
:1008E0009909AA09BB09883E9340A105B10570F397
:1008F00021E0C21AD108E108F10888EE880E83E0F1
:10090000981EA11CB11CC114D104E104F10419F713
:10091000DDCFFF90EF90DF90CF90BF90AF909F9092
:100920008F9008958F929F92AF92BF92CF92DF9255
:10093000EF92FF920F931F93CF93DF936C017B0194
:100940008A0180910B01882309F45CC080916A01BF
:10095000882309F457C080915C0180FF05C0809115
:10096000E00082608093E000E801B12C8AEFA82EBD
:1009700093E0892E2AE3922E209711F4BB20D9F11F
:100980000E94520181110AC0AA94AA20D9F161E003
:1009900070E080E090E00E945804EECF282F30E015
:1009A000C217D3070CF48C2F9FB7F8948092E900FC
:1009B0002091E80025FF1DC0282F30E0C21BD30B7B
:1009C000F701815020F041914093F100FACFE20EFF
:1009D000F31EBB2019F09092E8000AC08091E80055
:1009E00085FD07C09092E800BB24B394209709F0DE
:1009F000B12C9FBFC1CF5D9884E680935B01101638
:100A0000110644F081E090E0F6019383828380E058
:100A100090E001C0C801DF91CF911F910F91FF902D
:100A2000EF90DF90CF90BF90AF909F908F90089500
:100A3000CF93DF93009779F0FC0101900020E9F754
:100A40003197AF01481B590BBC018BEB91E00E9421
:100A5000C102EC0102C0C0E0D0E042E050E067E338
:100A600071E08BEB91E00E94C1028C0F9D1FDF9122
:100A7000CF9108950E94660A1F920F920FB60F92AF
:100A800011248F939F938091E1009091E100937FD7
:100A90009093E10083FF0FC01092E90091E09093E2
:100AA000EB001092EC0092E39093ED0010926A013B
:100AB00098E09093F00082FF20C093E09093E900CB
:100AC0009091F200992319F09AE39093E8009091A5
:100AD0005B01992339F090915B01915090935B01F8
:100AE000992389F190916901992339F090916901D5
:100AF000915090936901992341F184FF10C0809136
:100B0000E2008E7E81608093E2008091E1008F7E22
:100B10008093E10080915C018E7E806111C080FF36
:100B200016C08091E2008E7E80618093E200809109
:100B3000E1008E7E8093E10080915C018E7E816079
:100B400080935C0104C05D9ACDCF289AD6CF9F9147
:100B50008F910F900FBE0F901F9018951F920F92BC
:100B60000FB60F921124CF92DF92EF92FF920F9364
:100B70001F932F933F934F935F936F937F938F9325
:100B80009F93AF93BF93EF93FF93CF93DF93CDB733
:100B9000DEB76C97DEBFCDBF1092E9008091E80010
:100BA00083FFFBC168E0CE0145960E94B40282EF4C
:100BB0008093E8008D8987FF05C09091E80090FF41
:100BC000FCCF03C09EEF9093E800982F907609F039
:100BD000C6C09E894F89588D2F89F88C91110CC001
:100BE000803829F480915A018093F10002C010925C
:100BF000F1001092F10045C1913051F4811141C1D1
:100C00004130510509F03DC180915A018D7F0BC0E3
:100C1000933061F4811135C14130510509F031C182
:100C200080915A01826080935A012BC1953049F41A
:100C30008091E80080FFFCCF822F80688093E300E2
:100C400020C1963009F05EC00B8D1C8D22E0109201
:100C5000E9001092580110925701F21232C010921E
:100C60005601109255010E94820299E0BE016F5F09
:100C70007F4FDB01E92F1D92EA95E9F79983FA820C
:100C800091E09E8390EA98879AEF99872091570187
:100C900030915801275F3F4F3C832B838D83109207
:100CA000E9001092580110925701109356010093D9
:100CB000550149E050E080E00E945B020E94820200
:100CC000E0C010935601009355010E946301DC01BE
:100CD00012960D911C9113970115110509F4BBC0D3
:100CE000D801ED91FC910480F581E02DBE016B5E91
:100CF0007F4FC8010995009709F0C7C0F80100852A
:100D00001185EACF973009F445C1983021F481E08C
:100D10008093F100B6C0993009F0B3C0837009F038
:100D200039C1EDE0F1E081E031E096E3208121116D
:100D300009C08EE78093EA001092EA008F898093C1
:100D40006A019FC08093E9003093EB0021912093CA
:100D5000EC009093ED008F5F873041F7EACF8B8DE9
:100D60009C8D1092E90010925801109257019093B7
:100D7000560180935501898D811153C08E899D89BB
:100D8000913A49F4813209F005C147E050E064E04E
:100D900071E080E0BBC0913209F0FCC0833269F49D
:100DA0008F89988DA0E0B0E08093000190930101BD
:100DB000A0930201B093030164C0803269F4809172
:100DC000E80082FFFCCF67E084E091E00E94B4027B
:100DD0008BEF8093E80055C0823209F052C08F89B2
:100DE00080930B01EEEFFFE7859194918B3F9C4D33
:100DF00019F0E0E0F8E002C0EEEFFAE080910401C3
:100E000090910501A0910601B0910701803B9440AB
:100E1000A105B10509F09EC080910B0180FF79C04A
:100E200099C00E946301FC01028113810115110523
:100E300009F4B0C0D801ED91FC910190F081E02D52
:100E4000BE016B5E7F4FC801099581111AC0F80180
:100E500000851185EBCFF1E0FF1609F44EC0F3E0F9
:100E6000FF1298C08F89882309F44AC0823089F420
:100E700040E86CE08DE491E00E942602882309F4AA
:100E800089C08EEF8093E80088C018161906CCF34D
:100E900081C0813029F440E86BE081E491E0ECCF3F
:100EA000833009F077C00E946301DC011296ED9057
:100EB000FC9013978E010F5F1F4F6801E114F1043E
:100EC00079F0D701ED91FC910680F781E02DB80112
:100ED000C7010995080F111DF701E084F184EECFD9
:100EE000D8011C92F60101900020E9F73197BF016B
:100EF0006C197D0940E0C601BFCF6FE271E002C00E
:100F00006BE271E0FB01449150E080E80E945B02DB
:100F1000B8CFEE3F2AE0F20751F080819181873708
:100F2000A7E79A0721F09093FF0A8093FE0A87E7CC
:100F300097E79183808380916000809359019BE0C3
:100F400088E10FB6F894A895809360000FBE909347
:100F5000600097CF808191818737974709F091CFC3
:100F6000A89580916000886180936000809159010C
:100F700080936000EE3FBAE0FB0739F08091FE0AF3
:100F80009091FF0A918380837CCF1092FF0A109288
:100F9000FE0A77CF81E28093EB006C960FB6F8944F
:100FA000DEBF0FBECDBFDF91CF91FF91EF91BF911B
:100FB000AF919F918F917F916F915F914F913F91F1
:100FC0002F911F910F91FF90EF90DF90CF900F9096
:100FD0000FBE0F901F9018951F920F920FB60F9291
:100FE00011242F933F934F935F936F937F938F932E
:100FF0009F93AF93BF93EF93FF938BEB91E00E948E
:101000002803FF91EF91BF91AF919F918F917F91B5
:101010006F915F914F913F912F910F900FBE0F9065
:101020001F9018951F920F920FB60F9211242F93B5
:101030008F939F93EF93FF93E091CB01F091CC01BD
:101040008081E091D101F091D20182FD12C09081A6
:101050008091D4018F5F8F732091D501821751F059
:10106000E091D401F0E0E554FE4F958F8093D401D8
:1010700001C08081FF91EF919F918F912F910F90EF
:101080000FBE0F901F9018951F920F920FB60F92E0
:1010900011242F933F938F939F93AF93BF9380918E
:1010A0004D0190914E01A0914F01B09150013091AE
:1010B0004C0123E0230F2D3720F40196A11DB11D13
:1010C00005C026E8230F0296A11DB11D20934C01F7
:1010D00080934D0190934E01A0934F01B093500126
:1010E0008091510190915201A0915301B09154010E
:1010F0000196A11DB11D8093510190935201A093BF
:101100005301B0935401BF91AF919F918F913F9143
:101110002F910F900FBE0F901F901895EBE6F1E006
:101120001382128288EE93E0A0E0B0E0848395837E
:10113000A683B78327E131E0318320832FEF3FEF90
:1011400035872487EBEBF1E0138212828483958349
:10115000A683B78389E291E0918380838DEC90E050
:10116000958784878CEC90E09787868788EC90E061
:10117000918B808B89EC90E0938B828B8AEC90E052
:10118000958B848B8EEC90E0978B868B118E128ED4
:10119000138E148E0895789484B5826084BD84B5CE
:1011A000816084BD85B5826085BD85B5816085BD62
:1011B00080916E00816080936E001092810080911A
:1011C00081008260809381008091810081608093A2
:1011D00081008091800081608093800080919100E7
:1011E0008260809391008091910081608093910052
:1011F000809190008160809390008091C100846014
:101200008093C1008091C10082608093C100809171
:10121000C10081608093C1008091C3008160809390
:10122000C3008091C00082608093C0008091C200A2
:1012300081608093C20080917A00846080937A00FC
:1012400080917A00826080937A0080917A00816038
:1012500080937A0080917A00806880937A0010925F
:101260006A0110925A0110925C018091D70081604E
:101270008093D70080EA8093D80089B5806189BDCA
:1012800089B5826089BD09B400FEFDCF61E070E0E0
:1012900080E090E00E9458048091D8008F7C8061AB
:1012A0008093D8008091E000807F8093E00080915F
:1012B000E1008E7E8093E1008DE08093E200559AFC
:1012C000209AE091CB01F091CC0182E08083E09103
:1012D000C701F091C8011082E091C901F091CA01E3
:1012E0008FEC80831092D301E091CF01F091D00177
:1012F00086E08083E091CD01F091CE018081806114
:101300008083E091CD01F091CE018081886080835F
:10131000E091CD01F091CE01808180688083E091E1
:10132000CD01F091CE0180818F7D808383E00E948A
:1013300005018AE00E9405018BE00E94050188E01A
:101340000E94050182E00E94050189E00E940501DA
:1013500061E083E00E94CF0361E08AE00E94CF0356
:1013600061E088E00E94CF0361E082E00E94CF0349
:101370008DE00E94050160E08DE00E94CF03CBE884
:10138000D1E08BEB91E00E941C03181619060CF0BB
:1013900097C08BEB91E00E94FA02813391F561E0F6
:1013A0008DE00E94CF0360E083E00E94CF0361E004
:1013B0008AE00E94CF0360E088E00E94CF0361E0F2
:1013C00082E00E94CF0308EE13E061E08BE00E9410
:1013D000CF0361E089E00E94CF03CE010197F1F7CE
:1013E00060E08BE00E94CF0360E089E00E94CF03C1
:1013F000CE010197F1F70150110939F78AE391E025
:1014000034C0823309F03AC060E08DE00E94CF031F
:1014100060E083E00E94CF0360E08AE00E94CF0397
:1014200060E088E00E94CF0360E082E00E94CF038A
:1014300008EE13E061E08BE00E94CF0361E089E0F9
:101440000E94CF03CE010197F1F760E08BE00E948C
:10145000CF0360E089E00E94CF03CE010197F1F74E
:101460000150110939F782E491E00E94180561E00A
:1014700083E00E94CF0361E088E020C08136D1F490
:1014800005E010E061E08DE00E94CF0364E670E0CB
:1014900080E090E00E94580460E08DE00E94CF035D
:1014A00064E670E080E090E00E9458040150110969
:1014B00049F706C08A3721F461E08BE00E94CF0330
:1014C0000E94C1035ECFF8940C94710A81E090E011
:1014D000F8940C94710AEE0FFF1F0590F491E02D23
:0614E0000994F894FFCF0F
:1014E600FFFFFFFF00E100000000000000C1808157
:1014F600000000000000007701920498018D01DED3
:10150600019C01BA01000000004903C102EB0295EB
:10151600031C03FA020E030D0A00466F727761720E
:0C15260064004261636B77617264000036
:00000001FF
