:100000000C94DC000C9404010C9404010C94040185
:100010000C9404010C9404010C9404010C9404014C
:100020000C9404010C9404010C9402030C947403CA
:100030000C9404010C9404010C9404010C9404012C
:100040000C9404010C9404010C9404010C9404011C
:100050000C9404010C9404010C9404010C94A80663
:100060000C9404010C94D8050C94B2050C94040172
:100070000C9404010C9404010C9404010C940401EC
:100080000C9404010C9404010C9404010C940401DC
:100090000C9404010C9404010C9404010C940401CC
:1000A0000C9404010C9404010C94040135063806E8
:1000B00027062B062F065906590659063C06400608
:1000C00044064A064E06590654060000000200097E
:1000D0000F0000030401000C0000000000000000FD
:1000E000000000000000000000080B0002020200F7
:1000F00000090400000102020000052400100105AF
:1001000024010101042402060524060001070581DB
:100110000310004009040100020A00000007050264
:100120000240000007058302400000040309041296
:10013000010002EF02014041233680000101020369
:100140000141726475696E6F204C4C4300555342F7
:1001500020494F20426F61726400000000002500BA
:1001600028002B002E003100000000002400270092
:100170002A002D00300004080201104080401020A9
:10018000408040800802040180402010020110805D
:100190001020404020040404040403040502020269
:1001A0000204030202020206060606060604040210
:1001B00002020404D00DB90D11241FBECFEFDAE006
:1001C000DEBFCDBF12E0A0E0B1E0E6EBF1E202C09D
:1001D00005900D92A430B107D9F723E0A4E0B2E076
:1001E00001C01D92AB35B207E1F710E0CBEDD0E0D6
:1001F00004C02197FE010E94C810CA3DD107C9F76B
:100200000E9443090C94D40E0C94000040911102FA
:100210005091120220910F023091100242175307A1
:10022000B4F49091E8009570E1F39091E80092FDAC
:1002300019C08093F10080911102909112020196F1
:100240008F739927892B19F48EEF8093E8008091A2
:100250001102909112020196909312028093110262
:1002600081E0089580E00895DF92EF92FF920F936E
:100270001F93CF93DF93D82EF92EE42E062F10E094
:10028000C8010196880F0E94060183E00E940601C2
:10029000CD2DDF2D0C0F1D1FC017D10789F0E7FEF4
:1002A00003C0FE01849101C088810E940601F82EDE
:1002B00080E00E9406018F2121968111EDCF01C0BF
:1002C00081E0DF91CF911F910F91FF90EF90DF9030
:1002D0000895DF92EF92FF920F931F93CF93DF93D6
:1002E000D82E8A017B01E40EF51EEB01CE15DF0549
:1002F00071F0D7FE03C0FE01849101C088810E9485
:10030000060121968111F2CF8FEF9FEF01C0C80146
:10031000DF91CF911F910F91FF90EF90DF900895A3
:10032000615030F02091F100FC0120830196F8CF5C
:10033000289884E6809317020895CF92DF92EF9277
:10034000FF920F931F93CF93DF936C017A018B0180
:10035000C0E0D0E0CE15DF0581F0D8016D918D01B0
:10036000D601ED91FC910190F081E02DC601099537
:10037000892B11F02196EECF7E01C701DF91CF913D
:100380001F910F91FF90EF90DF90CF900895FC01A7
:10039000538D448D252F30E0842F90E0821B930BEA
:1003A000541710F0CF96089501970895FC01918D90
:1003B000828D981761F0828DDF01A80FB11D5D96C7
:1003C0008C91928D9F5F9F73928F90E008958FEF35
:1003D0009FEF0895FC01918D828D981731F0828DE9
:1003E000E80FF11D858D90E008958FEF9FEF089540
:1003F000FC01918D228D892F90E0805C9F4F821BA4
:1004000091098F7399270895FC01848DDF01A80F4E
:10041000B11DA35ABF4F2C91848D90E001968F732C
:100420009927848FA689B7892C93A089B1898C914B
:1004300082748C93938D848D981306C00288F389FF
:10044000E02D80818F7D80830895EF92FF920F933E
:100450001F93CF93DF93EC0181E0888F9B8D8C8D70
:10046000981305C0E889F989808185FD26C0F62E9C
:100470000B8D10E00F5F1F4F0F731127E02E8C8D37
:10048000E8120CC00FB607FCFACFE889F989808121
:1004900085FFF5CFCE010E940402F1CF8B8DFE01C6
:1004A000E80FF11DE35AFF4FF0829FB7F8940B8FCE
:1004B000EA89FB898081806209C09FB7F894EE8940
:1004C000FF896083E889F9898081827480839FBF76
:1004D00081E090E0DF91CF911F910F91FF90EF901D
:1004E0000895CF93DF93EC01888D8823C9F0EA89C2
:1004F000FB89808185FD05C0A889B9898C9186FD1D
:100500000FC00FB607FCF5CF808185FFF2CFA88919
:10051000B9898C9185FFEDCFCE010E940402E7CF0F
:10052000DF91CF91089589E192E00E94F80121E0E6
:10053000892B09F420E0822F089580E090E0892B38
:1005400029F00E94930281110C94000008950895EF
:1005500080E090E008953FB7F8948091090290916F
:100560000A02A0910B02B0910C0226B5A89B05C00F
:100570002F3F19F00196A11DB11D3FBFBA2FA92F22
:10058000982F8827820F911DA11DB11DBC01CD019F
:1005900042E0660F771F881F991F4A95D1F708958B
:1005A0000F931F93CF93DF931F92CDB7DEB782E0F7
:1005B000898342E450E069EE70E080E80E946901BE
:1005C0000E94F808DC0112960D911C9113970115F9
:1005D000110589F0D801ED91FC910280F381E02DA5
:1005E000BE016F5F7F4FC801099597FD04C0F801F8
:1005F00000851185ECCF89810F90DF91CF911F91FC
:100600000F9108951F920F920FB60F9211248F939E
:100610009F938091E1009091E100937F9093E1009E
:1006200083FF0FC01092E90091E09093EB001092CD
:10063000EC0092E39093ED001092180298E09093F2
:10064000F00082FF20C093E09093E9009091F200C7
:10065000992319F09AE39093E80090911502992359
:1006600039F090911502915090931502992389F1D8
:1006700090911702992339F090911702915090931D
:100680001702992341F184FF10C08091E2008E7E11
:1006900081608093E2008091E1008F7E8093E10091
:1006A000809116028E7E806111C080FF16C08091FD
:1006B000E2008E7E80618093E2008091E1008E7E78
:1006C0008093E100809116028E7E816080931602F5
:1006D00004C05D9ACDCF289AD6CF9F918F910F906D
:1006E0000FBE0F901F9018951F920F920FB60F928A
:1006F0001124CF92DF92EF92FF920F931F932F93CB
:100700003F934F935F936F937F938F939F93AF9399
:10071000BF93EF93FF93CF93DF93CDB7DEB76C9783
:10072000DEBFCDBF1092E9008091E80083FFFBC1DE
:1007300068E0CE0145960E94900182EF8093E80028
:100740008D8987FF05C09091E80090FFFCCF03C022
:100750009EEF9093E800982F907609F0C6C09E898E
:100760004F89588D2F89F88C91110CC0803829F44D
:10077000809114028093F10002C01092F100109257
:10078000F10045C1913051F4811141C14130510511
:1007900009F03DC1809114028D7F0BC0933061F44C
:1007A000811135C14130510509F031C180911402E8
:1007B0008260809314022BC1953049F48091E80047
:1007C00080FFFCCF822F80688093E30020C19630A9
:1007D00009F05EC00B8D1C8D22E01092E900109292
:1007E000120210921102F21232C0109210021092F4
:1007F0000F020E94D00299E0BE016F5F7F4FDB01C4
:10080000E92F1D92EA95E9F79983FA8291E09E8398
:1008100090EA98879AEF99872091110230911202FD
:10082000275F3F4F3C832B838D831092E90010920A
:100830001202109211021093100200930F0249E06D
:1008400050E080E00E9469010E94D002E0C0109355
:10085000100200930F020E94F808DC0112960D911D
:100860001C9113970115110509F4BBC0D801ED9136
:10087000FC910480F581E02DBE016B5E7F4FC801C5
:100880000995009709F0C7C0F80100851185EACFE6
:10089000973009F445C1983021F481E08093F1004C
:1008A000B6C0993009F0B3C0837009F039C1E0E5F2
:1008B000F1E081E031E096E32081211109C08EE76B
:1008C0008093EA001092EA008F89809318029FC0FB
:1008D0008093E9003093EB0021912093EC009093FA
:1008E000ED008F5F873041F7EACF8B8D9C8D1092A2
:1008F000E90010921202109211029093100280935C
:100900000F02898D811153C08E899D89913A49F4D6
:10091000813209F005C147E050E066E071E080E017
:10092000BBC0913209F0FCC0833269F48F89988D85
:10093000A0E0B0E08093020190930301A093040132
:10094000B093050164C0803269F48091E80082FFB1
:10095000FCCF67E086E091E00E9490018BEF8093EE
:10096000E80055C0823209F052C08F8980930D0192
:10097000EEEFFFE7859194918B3F9C4D19F0E0E0FD
:10098000F8E002C0EEEFFAE08091060190910701D5
:10099000A0910801B0910901803B9440A105B105E7
:1009A00009F09EC080910D0180FF79C099C00E941E
:1009B000F808FC01028113810115110509F4B0C08A
:1009C000D801ED91FC910190F081E02DBE016B5EAC
:1009D0007F4FC801099581111AC0F8010085118562
:1009E000EBCFF1E0FF1609F44EC0F3E0FF1298C020
:1009F0008F89882309F44AC0823089F440E86CE08A
:100A00008DE491E00E943401882309F489C08EEFBF
:100A10008093E80088C018161906CCF381C0813095
:100A200029F440E86BE081E491E0ECCF833009F0F9
:100A300077C00E94F808DC011296ED90FC901397A5
:100A40008E010F5F1F4F6801E114F10479F0D701A7
:100A5000ED91FC910680F781E02DB801C701099561
:100A6000080F111DF701E084F184EECFD8011C922C
:100A7000F60101900020E9F73197BF016C197D095B
:100A800040E0C601BFCF6FE271E002C06BE271E0EF
:100A9000FB01449150E080E80E946901B8CFEE3F2D
:100AA0002AE0F20751F0808191818737A7E79A0702
:100AB00021F09093FF0A8093FE0A87E797E79183DE
:100AC000808380916000809313029BE088E10FB6E1
:100AD000F894A895809360000FBE9093600097CF24
:100AE000808191818737974709F091CFA8958091B0
:100AF00060008861809360008091130280936000A1
:100B0000EE3FBAE0FB0739F08091FE0A9091FF0AB0
:100B1000918380837CCF1092FF0A1092FE0A77CFD8
:100B200081E28093EB006C960FB6F894DEBF0FBEA7
:100B3000CDBFDF91CF91FF91EF91BF91AF919F9189
:100B40008F917F916F915F914F913F912F911F9165
:100B50000F91FF90EF90DF90CF900F900FBE0F900E
:100B60001F9018951F920F920FB60F9211242F937A
:100B70003F934F935F936F937F938F939F93AF9325
:100B8000BF93EF93FF9389E192E00E940402FF91EB
:100B9000EF91BF91AF919F918F917F916F915F91F5
:100BA0004F913F912F910F900FBE0F901F9018956E
:100BB0001F920F920FB60F9211242F938F939F9332
:100BC000EF93FF93E0912902F0912A028081E09156
:100BD0002F02F091300282FD12C09081809132028A
:100BE0008F5F8F7320913302821751F0E0913202B0
:100BF000F0E0E75EFD4F958F8093320201C0808167
:100C0000FF91EF919F918F912F910F900FBE0F90B9
:100C10001F901895362F90E0FC01E653FF4F44914A
:100C2000FC01EA58FE4F2491FC01EB56FE4F8491E3
:100C3000882309F452C04423E1F150E0FA013197CE
:100C4000EF30F105B0F5EA5AFF4F0C94C8109091BF
:100C500080009F7707C0909180009F7D03C0909196
:100C60008000977F9093800024C094B59F7702C046
:100C700094B59F7D94BD1DC0909190009F7707C053
:100C8000909190009F7D03C090919000977F9093EA
:100C900090000FC09091C0009F7703C09091C0005A
:100CA0009F7D9093C00005C09091C200977F909364
:100CB000C200E82FF0E0EE0FFF1FE65AFE4FA591AD
:100CC000B4919FB7F894311104C08C9120952823DA
:100CD00002C0EC912E2B2C939FBF08958F929F9270
:100CE000AF92BF92CF92DF92EF92FF926B017C01A5
:100CF0000E94AB024B015C01C114D104E104F10478
:100D0000F1F00E94AB02DC01CB0188199909AA0914
:100D1000BB09883E9340A105B10570F321E0C21ADA
:100D2000D108E108F10888EE880E83E0981EA11C26
:100D3000B11CC114D104E104F10419F7DDCFFF9017
:100D4000EF90DF90CF90BF90AF909F908F900895DD
:100D50001F920F920FB60F9211242F933F938F93F0
:100D60009F93AF93BF938091050290910602A0914B
:100D70000702B09108023091040223E0230F2D37BF
:100D800020F40196A11DB11D05C026E8230F02968F
:100D9000A11DB11D209304028093050290930602C9
:100DA000A0930702B09308028091090290910A0271
:100DB000A0910B02B0910C020196A11DB11D809370
:100DC000090290930A02A0930B02B0930C02BF9108
:100DD000AF919F918F913F912F910F900FBE0F90E8
:100DE0001F90189520911802211103C08FEF9FEFDB
:100DF00008955FB7F89422E02093E9002091F20073
:100E000030E01216130614F421E030E0422FFC010A
:100E100084E6415038F02898809317029091F100B1
:100E20009193F7CF2115310521F08091F2008823AD
:100E300019F05FBFC90108958BE68093E800F9CFF0
:100E40002FB7F89483E08093E9009091E800892F10
:100E5000807295FF04C09091F20080E4891B2FBF3F
:100E60000895CF93DF931F92CDB7DEB76983DC017E
:100E7000ED91FC910280F381E02D41E050E0BE0154
:100E80006F5F7F4F09950F90DF91CF91089583E0B9
:100E90008093E9008091F200882319F08AE380931F
:100EA000E80008950E94200790E00895CF93DF9313
:100EB0001F92CDB7DEB7FC018485958597FD05C0EF
:100EC0002FEF3FEF358724870BC0CE0101960E949C
:100ED000F206019719F4898190E002C08FEF9FEF2D
:100EE0000F90DF91CF9108950F931F93CF93DF93CE
:100EF0001F92CDB7DEB78C01FC018485958597FFE5
:100F00000EC0CE0101960E94F206019719F4898164
:100F100090E002C08FEF9FEFF80195878487F8017A
:100F2000848595850F90DF91CF911F910F91089542
:100F3000FC018485958597FD0BC09FB7F89482E0EE
:100F40008093E9008091F2009FBF90E001960895A0
:100F50009FB7F89482E08093E9008091F2009FBFF0
:100F600090E008958F929F92AF92BF92CF92DF92BE
:100F7000EF92FF920F931F93CF93DF936C017B014E
:100F80008A0180910D01882309F45CC080911802C8
:100F9000882309F457C08091160280FF05C0809114
:100FA000E00082608093E000E801B12C8AEFA82E77
:100FB00093E0892E2AE3922E209711F4BB20D9F1D9
:100FC0000E94200781110AC0AA94AA20D9F161E0E9
:100FD00070E080E090E00E946E06EECF282F30E0B7
:100FE000C217D3070CF48C2F9FB7F8948092E900B6
:100FF0002091E80025FF1DC0282F30E0C21BD30B35
:10100000F701815020F041914093F100FACFE20EB8
:10101000F31EBB2019F09092E8000AC08091E8000E
:1010200085FD07C09092E800BB24B394209709F097
:10103000B12C9FBFC1CF5D9884E680931502101636
:10104000110644F081E090E0F6019383828380E012
:1010500090E001C0C801DF91CF911F910F91FF90E7
:10106000EF90DF90CF90BF90AF909F908F900895BA
:101070000E94D70E8091FE02882321F08BE090E041
:101080000197F1F7089590E0FC01EA58FE4F249192
:10109000FC01EB56FE4F8491882399F090E0880F75
:1010A000991FFC01E859FE4FA591B491FC01E65A45
:1010B000FE4F859194918FB7F894EC91E22BEC93CD
:1010C0008FBF0895009769F0FC0101900020E9F7B7
:1010D0003197AF01481B590BBC0189E192E00C9498
:1010E0009D0180E090E008958F929F92AF92BF9211
:1010F0000F931F93CF93DF93CDB7DEB7A1970FB6B2
:10110000F894DEBF0FBECDBF19A2423008F44AE00A
:101110008E010F5D1F4F842E912CA12CB12CA501A7
:1011200094010E94A610E62FB901CA0101501109CD
:10113000EA3014F4E05D01C0E95CD801EC93232BA4
:10114000242B252B61F7C8010E946208A1960FB6D7
:10115000F894DEBF0FBECDBFDF91CF911F910F91ED
:10116000BF90AF909F908F900895CF93DF93682F9B
:1011700089E192E00E942502EC0186EA91E00E945A
:1011800062088C0F9D1FDF91CF910895CF92DF925F
:10119000EF92FF92CF93DF936C01990FEE08FF0857
:1011A000F7FE13C06DE289E192E00E942502EC0196
:1011B00066277727CB016C197D098E099F094AE0C4
:1011C0000E947408C80FD91F06C04AE0C701B601C3
:1011D0000E947408EC0186EA91E00E9462088C0F7C
:1011E0009D1FDF91CF91FF90EF90DF90CF900895FA
:1011F0008091030381110DC082E08093FF0284E09F
:1012000080930003109202031092010381E0809307
:1012100003038FEF92E008958EBD00000DB407FE2A
:10122000FDCF8EB50895FF920F931F93CF93DF9359
:10123000182FF62E072FC8ECD2E060E08CA90E9490
:101240000A06812F80680E940C098F2D0E940C09CC
:1012500061E08CA90E940A060E943A0860E08CA90D
:101260000E940A0681E0810F80680E940C09802F8D
:101270000E940C0961E08CA9DF91CF911F910F9121
:10128000FF900C940A06CF93DF93CDB7DEB7C0581A
:10129000D1090FB6F894DEBF0FBECDBF789484B5E8
:1012A000826084BD84B5816084BD85B5826085BD62
:1012B00085B5816085BD80916E00816080936E00F0
:1012C00010928100809181008260809381008091E2
:1012D0008100816080938100809180008160809393
:1012E00080008091910082608093910080919100B4
:1012F0008160809391008091900081608093900044
:101300008091C10084608093C1008091C10082609F
:101310008093C1008091C10081608093C100809161
:10132000C30081608093C3008091C000826080937D
:10133000C0008091C20081608093C20080917A00D9
:10134000846080937A0080917A00826080937A0032
:1013500080917A00816080937A0080917A00806821
:1013600080937A00109218021092140210921602C2
:101370008091D70081608093D70080EA8093D80065
:1013800089B5806189BD89B5826089BD09B400FED7
:10139000FDCF61E070E080E090E00E946E068091F9
:1013A000D8008F7C80618093D8008091E000807F9E
:1013B0008093E0008091E1008E7E8093E1008DE0DB
:1013C0008093E200559A209AE0912902F0912A0236
:1013D00082E08083E0912502F09126021082E09164
:1013E0002702F091280280E1808310923102E0917F
:1013F0002D02F0912E0286E08083E0912B02F09185
:101400002C02808180618083E0912B02F0912C027C
:10141000808188608083E0912B02F0912C02808192
:1014200080688083E0912B02F0912C0280818F7D77
:1014300080838CB58C608CBD87E00E94430860E09F
:1014400087E00E940A0664E670E080E090E00E9477
:101450006E0661E087E00E940A0664E670E080E0C4
:1014600090E00E946E0662E07EEB8EE30E9413091C
:1014700062E370E080E090E00E946E0664E670E057
:1014800080E090E00E946E0666E071E088E30E94D2
:10149000130962E370E080E090E00E946E0664E66B
:1014A00070E080E090E00E946E066BEF7FE180E2EA
:1014B0000E94130964E670E080E090E00E946E06EE
:1014C0006EEF7FE182E20E94130964E670E080E043
:1014D00090E00E946E068CE891E00E94620886EA25
:1014E00091E00E94620801E011E09E012F593F4FF8
:1014F000EB963FAF2EAFEB97AE014F5F5F4FED9690
:101500005FAF4EAFED971092C70287E0F82E89E1EA
:1015100092E00E94F801181619062CF48091C70277
:10152000882309F4AAC28091C702882309F4A2C2C1
:101530008091BF02883729F41092B8021092B70246
:1015400042C0893719F481E090E004C08A3739F449
:1015500082E090E09093B8028093B70234C08B325F
:1015600019F41093B9022FC08D3219F41092B902F8
:101570002AC0813369F48091BB029091BC028456E9
:101580009109181619060CF4A2C282E390E09FC2DA
:10159000813739F48091BB029091BC028C599F4FE6
:1015A00096C2803739F4A1E0B0E0B0930101A09376
:1015B000000109C08E3609F080C2E0E1F0E0F0934E
:1015C0000101E09300018091BF028F3609F097C1BD
:1015D0008CE0EEE0F1E0DE01A359BF4F01900D92E7
:1015E0008A95E1F78CE0EB96AEADBFADEB971D921F
:1015F0008A95E9F7A2960FAFA297AD960FAFAD9778
:1016000080E3EAE1F1E0DE01D19601900D928A9546
:10161000E1F780E3ED96EEADFFADED9711928A957F
:10162000E9F720E030E048EC51E429A73AA74BA7BE
:101630005CA783E393E3A3EDBFEB8DA79EA7AFA7C2
:10164000B8AB60E08091FC020E940A068EE30E9423
:101650000C0980E00E940C090E943A08DE01A3599F
:10166000BF4F7D01FE01EF59FF4F5F011E01F1E306
:101670002F0E311C9E012F5F3F4F690148EC52E055
:10168000EF965FAF4EAFEF974D015CE0850E911C7A
:1016900088EC92E0C158DF4F99838883CF57D040C0
:1016A00080E00E940C09782E80E00E940C09D7018E
:1016B0009D917D01292F30E040E150E0421B530B0A
:1016C0006FEF70E002C0759567954A95E2F7672164
:1016D00070E0762F6627682BF50181915F018111FB
:1016E00022C02150310941E050E002C0440F551F93
:1016F0002A95E2F79A0126233723232BA1F0AFEF97
:10170000B0E002C0AA0FBB1F9A95E2F76A2B7B2BB1
:1017100071956195710980E090E00E947D0F9B01B9
:10172000AC01505806C080E090E00E947D0F9B0104
:10173000AC01F10161917191819191911F01D601EB
:101740004D905D906D907D906D010E943410A301CD
:1017500092010E94DD0EC158DF4FE881F981CF5719
:10176000D0406193719381939193C158DF4FF98376
:10177000E883CF57D0400E943A088E149F0409F0A6
:101780008FCF61E08091FC020E940A06F8EF2F2EB5
:10179000F2E03F2EEF96AEADBFADEF97CD90DD906E
:1017A000ED90FD90EF96BFAFAEAFEF97A70196011A
:1017B000C701B6010E94A110882319F089EA91E0BF
:1017C0001AC046015701E894B7F82FEF3FEF4FE7F3
:1017D0005FE7C501B4010E94A11081110FC02FEF76
:1017E0003FEF4FE75FE7C501B4010E94490F1816AC
:1017F0002CF48DEA91E00E94620871C02FEF3FEF58
:101800004FE75FE4C701B6010E942F1018161CF4C1
:1018100081EB91E0F0CF2FEF3FEF4FE75FECC70197
:10182000B6010E94490F87FDF3CF20E030E0A90107
:10183000C701B6010E94490F87FF09C06DE289E127
:1018400092E00E942502F7FAF094F7F8F0942EE661
:1018500032E143E05AE3C701B6010E94DD0E6B019D
:101860007C010E944E0F4B015C010E947D0F9B0189
:10187000AC01C701B6010E94DC0E6B017C014AE09D
:10188000C501B4010E9474086EE289E192E00E94F1
:101890002502E4E0BE2EBA94BB2009F120E030E03E
:1018A00040E251E4C701B6010E9434102B013C0113
:1018B0000E944E0F6B01E12CF12C4AE0C701B601EA
:1018C0000E947408C701B6010E947D0F9B01AC0104
:1018D000C301B2010E94DC0E6B017C01DCCF85EB01
:1018E00091E00E946208EF96EEADFFADEF972E16E5
:1018F0003F0609F04FCF86EA91E00E94620880918E
:10190000BF02843709F047C087EB91E00E9462086C
:1019100086EA91E00E94620888EC91E00E946208E9
:10192000E091B702F091B802E45BFE4F80810E9423
:10193000B50888ED91E00E946208E091B902F0E0FC
:10194000E65BFE4F80810E94B50884EE91E00E9424
:1019500062088091BB029091BC020E94C6088CEE86
:1019600091E00E9462088091BD029091BE020E94A7
:10197000C60883EF91E00E9462088091BA0290E06D
:101980000E94C6088CEF91E00E94620880910E02CE
:1019900090E00E94C6088091BF02873609F064C0BB
:1019A000E091B702F091B802EE0FFF1FEA57FE4F29
:1019B0006091BA0280810E940A06E091B702F0911C
:1019C000B802EE0FFF1FE058FE4F6091B902808110
:1019D0000E940A06E12CF12C2091BD023091BE023A
:1019E0008091B7029091B802880F991FFC01E2160E
:1019F000F30694F5E658FE4F61E080810E940A06E6
:101A00008091BB029091BC028230910538F0880F22
:101A1000991F880F991F05970197F1F7E091B70279
:101A2000F091B802EE0FFF1FE658FE4F60E0808194
:101A30000E940A068091BB029091BC0282309105FF
:101A400038F0880F991F880F991F05970197F1F7B4
:101A5000FFEFEF1AFF0AC0CFEA57FE4F61E0808127
:101A60000E940A0610930E028091BF02833711F480
:101A700010920E020E949D0246CD89E192E00E94E2
:101A8000D601E0910D028D3079F0AE2FB0E0A9546F
:101A9000BD4F18968C93EF5FE83018F4E0930D0279
:101AA00036CDF0920D0233CDF0E0E954FD4F1086B3
:101AB00010920D021093C7022ACD823769F480EA92
:101AC00090E09093BE028093BD0288EE93E09093E5
:101AD000BC028093BB0277CD823379F42091BD02A2
:101AE0003091BE028091000190910101820F931FFD
:101AF0009093BE028093BD0266CD8737D9F42091C2
:101B00000001309101018091BD029091BE02821BC3
:101B1000930B9093BE028093BD028091BB02909183
:101B2000BC02181619060CF44ECD3093BC0220935B
:101B3000BB0249CD813609F046CDB3E0EB2EF12C46
:101B400061E08DE00E940A0664E670E080E090E0CB
:101B50000E946E0660E08DE00E940A0664E670E076
:101B600080E090E00E946E06F1E0EF1AF10841F784
:101B70002ACD60E071E08AE30E9413099FB7F894D0
:101B80008091B602882319F081508093B60280912B
:101B9000B602811103C08CB58F7B8CBD9FBF0895A9
:101BA000AF92BF92CF92DF92EF92FF920F931F936B
:101BB000CF93DF9310920E0310920D0388EE93E003
:101BC000A0E0B0E080930F0390931003A093110363
:101BD000B09312032AE531E030930C0320930B03FA
:101BE0002FEF3FEF309318032093170310921C023E
:101BF00010921B0280931D0290931E02A0931F025D
:101C0000B09320028CE691E090931A02809319021F
:101C10008DEC90E090932602809325028CEC90E06E
:101C2000909328028093270288EC90E090932A02F8
:101C30008093290289EC90E090932C0280932B02F0
:101C40008AEC90E090932E0280932D028EEC90E02F
:101C50009093300280932F0210923202109233023E
:101C6000109234021092350285E090E09093FD02CC
:101C70008093FC02CFB7F8948091B602811124C002
:101C8000E6EAF1E08491E7E8F1E09491E82FF0E0F2
:101C9000EE0FFF1FE859FE4FA591B491EC91E92397
:101CA00021F461E081E10E940A0681E10E9443087B
:101CB0008CB580618CBD8CB580648CBD8FE00E943A
:101CC000430880E10E9443088091B6028F5F8093B1
:101CD000B602CFBF85E00E9443088CB58F7D8CBDD6
:101CE0008CB58C608CBD8CB58C7F81608CBD8DB5C6
:101CF0008E7F8DBD61E085E00E940A061092FE0293
:101D000060E08091FC020E940A060E943A0861E0AD
:101D10008091FC020E940A068DE00E94430860E068
:101D20008DE00E940A06C6E8D1E080E8E82E81E056
:101D3000F82E0AE711E09CE8A92E91E0B92EC880A0
:101D400022968C2D0E944308F701D080F2E0EF0E1E
:101D5000F11C8D2D0E944308F80180810E5F1F4FFA
:101D60000E94430861E08C2D0E940A0661E08D2DDF
:101D70000E940A06AC16BD0611F780EA90E0909327
:101D8000BE028093BD0288EE93E09093BC028093E4
:101D9000BB02DF91CF911F910F91FF90EF90DF90E9
:101DA000CF90BF90AF900895F8940C94CE1081E03E
:101DB00090E0F8940C94CE105058BB27AA270E94AC
:101DC000F40E0C94F50F0E94E70F38F00E94EE0F0E
:101DD00020F039F49F3F19F426F40C94E40F0EF42C
:101DE000E095E7FB0C94DE0FE92F0E94061058F3F4
:101DF000BA17620773078407950720F079F4A6F5F0
:101E00000C9428100EF4E0950B2EBA2FA02D0B0188
:101E1000B90190010C01CA01A0011124FF27591B2F
:101E200099F0593F50F4503E68F11A16F040A22F35
:101E3000232F342F4427585FF3CF469537952795A6
:101E4000A795F0405395C9F77EF41F16BA0B620BA5
:101E5000730B840BBAF09150A1F0FF0FBB1F661FEC
:101E6000771F881FC2F70EC0BA0F621F731F841F2F
:101E700048F4879577956795B795F7959E3F08F055
:101E8000B0CF9395880F08F09927EE0F9795879517
:101E900008950E94BA0F08F481E008950E940E1080
:101EA00088F09F5798F0B92F9927B751B0F0E1F01B
:101EB000660F771F881F991F1AF0BA95C9F714C0CB
:101EC000B13091F00E942810B1E008950C942810D0
:101ED000672F782F8827B85F39F0B93FCCF3869504
:101EE00077956795B395D9F73EF490958095709561
:101EF00061957F4F8F4F9F4F0895E89409C097FBDE
:101F00003EF490958095709561957F4F8F4F9F4FD0
:101F10009923A9F0F92F96E9BB279395F695879514
:101F200077956795B795F111F8CFFAF4BB0F11F4D7
:101F300060FF1BC06F5F7F4F8F4F9F4F16C088237E
:101F400011F096E911C0772321F09EE8872F762FB4
:101F500005C0662371F096E8862F70E060E02AF0F5
:101F60009A95660F771F881FDAF7880F96958795E1
:101F700097F90895990F0008550FAA0BE0E8FEEFB6
:101F800016161706E807F907C0F012161306E4073D
:101F9000F50798F0621B730B840B950B39F40A2636
:101FA00061F0232B242B252B21F408950A2609F414
:101FB000A140A6958FEF811D811D089597F99F6718
:101FC00080E870E060E008959FEF80EC08950024C1
:101FD0000A941616170618060906089500240A948E
:101FE00012161306140605060895092E0394000C14
:101FF00011F4882352F0BB0F40F4BF2B11F460FFA3
:1020000004C06F5F7F4F8F4F9F4F089557FD9058CB
:10201000440F551F59F05F3F71F04795880F97FBAC
:10202000991F61F09F3F79F0879508951216130666
:102030001406551FF2CF4695F1DF08C01616170695
:102040001806991FF1CF86957105610508940895CA
:10205000E894BB2766277727CB0197F908950E945C
:10206000BA0F08F48FEF08950E9447100C94F50FF3
:102070000E94E70F38F00E94EE0F20F0952311F038
:102080000C94DE0F0C94E40F11240C9429100E9480
:10209000061070F3959FC1F3950F50E0551F629F96
:1020A000F001729FBB27F00DB11D639FAA27F00DB1
:1020B000B11DAA1F649F6627B00DA11D661F829FD8
:1020C0002227B00DA11D621F739FB00DA11D621FBD
:1020D000839FA00D611D221F749F3327A00D611DDA
:1020E000231F849F600D211D822F762F6A2F1124BC
:1020F0009F5750409AF0F1F088234AF0EE0FFF1FEF
:10210000BB1F661F771F881F91505040A9F79E3F45
:10211000510580F00C94DE0F0C9429105F3FE4F31E
:10212000983ED4F3869577956795B795F795E7959B
:102130009F5FC1F7FE2B880F911D9695879597F9A4
:1021400008950E94BA0F880B990B0895A1E21A2EE8
:10215000AA1BBB1BFD010DC0AA1FBB1FEE1FFF1F4B
:10216000A217B307E407F50720F0A21BB30BE40B9B
:10217000F50B661F771F881F991F1A9469F76095E2
:102180007095809590959B01AC01BD01CF0108959C
:10219000EE0FFF1F0590F491E02D099410E0CBEDB8
:1021A000D0E004C0FE010E94C8102196CC3DD107AA
:0621B000C9F7F894FFCF0F
:1021B6004006FFFFFFFF00E10000000000000E0EDA
:1021C6000E0E0E0E0E0E0E0E0C0C4F771E3BCDCCC9
:1021D6004C3CCDCC4C3CCDCC4C3CB81E5540B81EEE
:1021E6005540B81E55400000003F0000003F00006B
:1021F600003F295C0F3EBF49533A2D2B78797A0070
:10220600C18081000000000000003107B2075207BC
:1022160047079807560774070000000025029D012E
:10222600C7017102F801D601EA010B0009000C0092
:102236000A0002000400030008000600616972201B
:1022460062656172696E67207461626C6520636F96
:10225600636B706974000D0A006E616E00696E66CC
:10226600006F7666002C004D6F746F72205061729D
:10227600616D65746572730043757272656E742064
:102286006D6F746F723A2000446972656374696F8A
:102296006E3A200053706565643A20005374657089
:1022A6003A20005374617475733A2000666C616756
:0422B6003A200000CA
:00000001FF
