:100000000C94DC000C9404010C9404010C94040185
:100010000C9404010C9404010C9404010C9404014C
:100020000C9404010C9404010C9402030C947403CA
:100030000C9404010C9404010C9404010C9404012C
:100040000C9404010C9404010C9404010C9404011C
:100050000C9404010C9404010C9404010C94A80663
:100060000C9404010C94D8050C94B2050C94040172
:100070000C9404010C9404010C9404010C940401EC
:100080000C9404010C9404010C9404010C940401DC
:100090000C9404010C9404010C9404010C940401CC
:1000A0000C9404010C9404010C94040135063806E8
:1000B00027062B062F065906590659063C06400608
:1000C00044064A064E06590654060000000200097E
:1000D0000F0000030401000C0000000000000000FD
:1000E000000000000000000000080B0002020200F7
:1000F00000090400000102020000052400100105AF
:1001000024010101042402060524060001070581DB
:100110000310004009040100020A00000007050264
:100120000240000007058302400000040309041296
:10013000010002EF02014041233680000101020369
:100140000141726475696E6F204C4C4300555342F7
:1001500020494F20426F61726400000000002500BA
:1001600028002B002E003100000000002400270092
:100170002A002D00300004080201104080401020A9
:10018000408040800802040180402010020110805D
:100190001020404020040404040403040502020269
:1001A0000204030202020206060606060604040210
:1001B00002020404250D0E0D11241FBECFEFDAE05C
:1001C000DEBFCDBF11E0A0E0B1E0E0E6F0E202C0AA
:1001D00005900D92A63BB107D9F723E0A6EBB1E05D
:1001E00001C01D92AB30B207E1F710E0CBEDD0E0DB
:1001F00004C02197FE010E941D10CA3DD107C9F716
:100200000E9495090C94290E0C9400004091C201A3
:100210005091C3012091C0013091C1014217530791
:10022000B4F49091E8009570E1F39091E80092FDAC
:1002300019C08093F1008091C2019091C301019691
:100240008F739927892B19F48EEF8093E8008091A2
:10025000C2019091C30101969093C3018093C201A2
:1002600081E0089580E00895DF92EF92FF920F936E
:100270001F93CF93DF93D82EF92EE42E062F10E094
:10028000C8010196880F0E94060183E00E940601C2
:10029000CD2DDF2D0C0F1D1FC017D10789F0E7FEF4
:1002A00003C0FE01849101C088810E940601F82EDE
:1002B00080E00E9406018F2121968111EDCF01C0BF
:1002C00081E0DF91CF911F910F91FF90EF90DF9030
:1002D0000895DF92EF92FF920F931F93CF93DF93D6
:1002E000D82E8A017B01E40EF51EEB01CE15DF0549
:1002F00071F0D7FE03C0FE01849101C088810E9485
:10030000060121968111F2CF8FEF9FEF01C0C80146
:10031000DF91CF911F910F91FF90EF90DF900895A3
:10032000615030F02091F100FC0120830196F8CF5C
:10033000289884E68093C8010895CF92DF92EF92C7
:10034000FF920F931F93CF93DF936C017A018B0180
:10035000C0E0D0E0CE15DF0581F0D8016D918D01B0
:10036000D601ED91FC910190F081E02DC601099537
:10037000892B11F02196EECF7E01C701DF91CF913D
:100380001F910F91FF90EF90DF90CF900895FC01A7
:10039000538D448D252F30E0842F90E0821B930BEA
:1003A000541710F0CF96089501970895FC01918D90
:1003B000828D981761F0828DDF01A80FB11D5D96C7
:1003C0008C91928D9F5F9F73928F90E008958FEF35
:1003D0009FEF0895FC01918D828D981731F0828DE9
:1003E000E80FF11D858D90E008958FEF9FEF089540
:1003F000FC01918D228D892F90E0805C9F4F821BA4
:1004000091098F7399270895FC01848DDF01A80F4E
:10041000B11DA35ABF4F2C91848D90E001968F732C
:100420009927848FA689B7892C93A089B1898C914B
:1004300082748C93938D848D981306C00288F389FF
:10044000E02D80818F7D80830895EF92FF920F933E
:100450001F93CF93DF93EC0181E0888F9B8D8C8D70
:10046000981305C0E889F989808185FD26C0F62E9C
:100470000B8D10E00F5F1F4F0F731127E02E8C8D37
:10048000E8120CC00FB607FCFACFE889F989808121
:1004900085FFF5CFCE010E940402F1CF8B8DFE01C6
:1004A000E80FF11DE35AFF4FF0829FB7F8940B8FCE
:1004B000EA89FB898081806209C09FB7F894EE8940
:1004C000FF896083E889F9898081827480839FBF76
:1004D00081E090E0DF91CF911F910F91FF90EF901D
:1004E0000895CF93DF93EC01888D8823C9F0EA89C2
:1004F000FB89808185FD05C0A889B9898C9186FD1D
:100500000FC00FB607FCF5CF808185FFF2CFA88919
:10051000B9898C9185FFEDCFCE010E940402E7CF0F
:10052000DF91CF9108958AEC91E00E94F80121E0DB
:10053000892B09F420E0822F089580E090E0892B38
:1005400029F00E94930281110C94000008950895EF
:1005500080E090E008953FB7F8948091BB019091BE
:10056000BC01A091BD01B091BE0126B5A89B05C0FC
:100570002F3F19F00196A11DB11D3FBFBA2FA92F22
:10058000982F8827820F911DA11DB11DBC01CD019F
:1005900042E0660F771F881F991F4A95D1F708958B
:1005A0000F931F93CF93DF931F92CDB7DEB782E0F7
:1005B000898342E450E069EE70E080E80E946901BE
:1005C0000E944A09DC0112960D911C9113970115A6
:1005D000110589F0D801ED91FC910280F381E02DA5
:1005E000BE016F5F7F4FC801099597FD04C0F801F8
:1005F00000851185ECCF89810F90DF91CF911F91FC
:100600000F9108951F920F920FB60F9211248F939E
:100610009F938091E1009091E100937F9093E1009E
:1006200083FF0FC01092E90091E09093EB001092CD
:10063000EC0092E39093ED001092C90198E0909342
:10064000F00082FF20C093E09093E9009091F200C7
:10065000992319F09AE39093E8009091C6019923A9
:1006600039F09091C60191509093C601992389F178
:100670009091C801992339F09091C80191509093BD
:10068000C801992341F184FF10C08091E2008E7E61
:1006900081608093E2008091E1008F7E8093E10091
:1006A0008091C7018E7E806111C080FF16C080914D
:1006B000E2008E7E80618093E2008091E1008E7E78
:1006C0008093E1008091C7018E7E81608093C70195
:1006D00004C05D9ACDCF289AD6CF9F918F910F906D
:1006E0000FBE0F901F9018951F920F920FB60F928A
:1006F0001124CF92DF92EF92FF920F931F932F93CB
:100700003F934F935F936F937F938F939F93AF9399
:10071000BF93EF93FF93CF93DF93CDB7DEB76C9783
:10072000DEBFCDBF1092E9008091E80083FFFBC1DE
:1007300068E0CE0145960E94900182EF8093E80028
:100740008D8987FF05C09091E80090FFFCCF03C022
:100750009EEF9093E800982F907609F0C6C09E898E
:100760004F89588D2F89F88C91110CC0803829F44D
:100770008091C5018093F10002C01092F1001092A7
:10078000F10045C1913051F4811141C14130510511
:1007900009F03DC18091C5018D7F0BC0933061F49C
:1007A000811135C14130510509F031C18091C50138
:1007B00082608093C5012BC1953049F48091E80097
:1007C00080FFFCCF822F80688093E30020C19630A9
:1007D00009F05EC00B8D1C8D22E01092E900109292
:1007E000C3011092C201F21232C01092C1011092E4
:1007F000C0010E94D00299E0BE016F5F7F4FDB0114
:10080000E92F1D92EA95E9F79983FA8291E09E8398
:1008100090EA98879AEF99872091C2013091C3019D
:10082000275F3F4F3C832B838D831092E90010920A
:10083000C3011092C2011093C1010093C00149E0AD
:1008400050E080E00E9469010E94D002E0C0109355
:10085000C1010093C0010E944A09DC0112960D916A
:100860001C9113970115110509F4BBC0D801ED9136
:10087000FC910480F581E02DBE016B5E7F4FC801C5
:100880000995009709F0C7C0F80100851185EACFE6
:10089000973009F445C1983021F481E08093F1004C
:1008A000B6C0993009F0B3C0837009F039C1E9E4EA
:1008B000F1E081E031E096E32081211109C08EE76B
:1008C0008093EA001092EA008F898093C9019FC04B
:1008D0008093E9003093EB0021912093EC009093FA
:1008E000ED008F5F873041F7EACF8B8D9C8D1092A2
:1008F000E9001092C3011092C2019093C10180934C
:10090000C001898D811153C08E899D89913A49F426
:10091000813209F005C147E050E064E071E080E019
:10092000BBC0913209F0FCC0833269F48F89988D85
:10093000A0E0B0E08093000190930101A093020138
:10094000B093030164C0803269F48091E80082FFB3
:10095000FCCF67E084E091E00E9490018BEF8093F0
:10096000E80055C0823209F052C08F8980930B0194
:10097000EEEFFFE7859194918B3F9C4D19F0E0E0FD
:10098000F8E002C0EEEFFAE08091040190910501D9
:10099000A0910601B0910701803B9440A105B105EB
:1009A00009F09EC080910B0180FF79C099C00E9420
:1009B0004A09FC01028113810115110509F4B0C037
:1009C000D801ED91FC910190F081E02DBE016B5EAC
:1009D0007F4FC801099581111AC0F8010085118562
:1009E000EBCFF1E0FF1609F44EC0F3E0FF1298C020
:1009F0008F89882309F44AC0823089F440E86CE08A
:100A00008DE491E00E943401882309F489C08EEFBF
:100A10008093E80088C018161906CCF381C0813095
:100A200029F440E86BE081E491E0ECCF833009F0F9
:100A300077C00E944A09DC011296ED90FC90139752
:100A40008E010F5F1F4F6801E114F10479F0D701A7
:100A5000ED91FC910680F781E02DB801C701099561
:100A6000080F111DF701E084F184EECFD8011C922C
:100A7000F60101900020E9F73197BF016C197D095B
:100A800040E0C601BFCF6FE271E002C06BE271E0EF
:100A9000FB01449150E080E80E946901B8CFEE3F2D
:100AA0002AE0F20751F0808191818737A7E79A0702
:100AB00021F09093FF0A8093FE0A87E797E79183DE
:100AC0008083809160008093C4019BE088E10FB631
:100AD000F894A895809360000FBE9093600097CF24
:100AE000808191818737974709F091CFA8958091B0
:100AF00060008861809360008091C40180936000F1
:100B0000EE3FBAE0FB0739F08091FE0A9091FF0AB0
:100B1000918380837CCF1092FF0A1092FE0A77CFD8
:100B200081E28093EB006C960FB6F894DEBF0FBEA7
:100B3000CDBFDF91CF91FF91EF91BF91AF919F9189
:100B40008F917F916F915F914F913F912F911F9165
:100B50000F91FF90EF90DF90CF900F900FBE0F900E
:100B60001F9018951F920F920FB60F9211242F937A
:100B70003F934F935F936F937F938F939F93AF9325
:100B8000BF93EF93FF938AEC91E00E940402FF91E0
:100B9000EF91BF91AF919F918F917F916F915F91F5
:100BA0004F913F912F910F900FBE0F901F9018956E
:100BB0001F920F920FB60F9211242F938F939F9332
:100BC000EF93FF93E091DA01F091DB018081E091F6
:100BD000E001F091E10182FD12C090818091E3017A
:100BE0008F5F8F732091E401821751F0E091E30150
:100BF000F0E0E653FE4F958F8093E30101C08081C2
:100C0000FF91EF919F918F912F910F900FBE0F90B9
:100C10001F901895362F90E0FC01E653FF4F44914A
:100C2000FC01EA58FE4F2491FC01EB56FE4F8491E3
:100C3000882309F452C04423E1F150E0FA013197CE
:100C4000EF30F105B0F5EA5AFF4F0C941D1090916A
:100C500080009F7707C0909180009F7D03C0909196
:100C60008000977F9093800024C094B59F7702C046
:100C700094B59F7D94BD1DC0909190009F7707C053
:100C8000909190009F7D03C090919000977F9093EA
:100C900090000FC09091C0009F7703C09091C0005A
:100CA0009F7D9093C00005C09091C200977F909364
:100CB000C200E82FF0E0EE0FFF1FE65AFE4FA591AD
:100CC000B4919FB7F894311104C08C9120952823DA
:100CD00002C0EC912E2B2C939FBF08958F929F9270
:100CE000AF92BF92CF92DF92EF92FF926B017C01A5
:100CF0000E94AB024B015C01C114D104E104F10478
:100D0000F1F00E94AB02DC01CB0188199909AA0914
:100D1000BB09883E9340A105B10570F321E0C21ADA
:100D2000D108E108F10888EE880E83E0981EA11C26
:100D3000B11CC114D104E104F10419F7DDCFFF9017
:100D4000EF90DF90CF90BF90AF909F908F900895DD
:100D50001F920F920FB60F9211242F933F938F93F0
:100D60009F93AF93BF938091B7019091B801A091E9
:100D7000B901B091BA013091B60123E0230F2D37AC
:100D800020F40196A11DB11D05C026E8230F02968F
:100D9000A11DB11D2093B6018093B7019093B801B6
:100DA000A093B901B093BA018091BB019091BC01AD
:100DB000A091BD01B091BE010196A11DB11D80930E
:100DC000BB019093BC01A093BD01B093BE01BF9144
:100DD000AF919F918F913F912F910F900FBE0F90E8
:100DE0001F9018952091C901211103C08FEF9FEF2B
:100DF00008955FB7F89422E02093E9002091F20073
:100E000030E01216130614F421E030E0422FFC010A
:100E100084E6415038F028988093C8019091F10001
:100E20009193F7CF2115310521F08091F2008823AD
:100E300019F05FBFC90108958BE68093E800F9CFF0
:100E40002FB7F89483E08093E9009091E800892F10
:100E5000807295FF04C09091F20080E4891B2FBF3F
:100E60000895CF93DF931F92CDB7DEB76983DC017E
:100E7000ED91FC910280F381E02D41E050E0BE0154
:100E80006F5F7F4F09950F90DF91CF91089583E0B9
:100E90008093E9008091F200882319F08AE380931F
:100EA000E80008950E94200790E00895CF93DF9313
:100EB0001F92CDB7DEB7FC018485958597FD05C0EF
:100EC0002FEF3FEF358724870BC0CE0101960E949C
:100ED000F206019719F4898190E002C08FEF9FEF2D
:100EE0000F90DF91CF9108950F931F93CF93DF93CE
:100EF0001F92CDB7DEB78C01FC018485958597FFE5
:100F00000EC0CE0101960E94F206019719F4898164
:100F100090E002C08FEF9FEFF80195878487F8017A
:100F2000848595850F90DF91CF911F910F91089542
:100F3000FC018485958597FD0BC09FB7F89482E0EE
:100F40008093E9008091F2009FBF90E001960895A0
:100F50009FB7F89482E08093E9008091F2009FBFF0
:100F600090E008958F929F92AF92BF92CF92DF92BE
:100F7000EF92FF920F931F93CF93DF936C017B014E
:100F80008A0180910B01882309F45CC08091C9011A
:100F9000882309F457C08091C70180FF05C0809164
:100FA000E00082608093E000E801B12C8AEFA82E77
:100FB00093E0892E2AE3922E209711F4BB20D9F1D9
:100FC0000E94200781110AC0AA94AA20D9F161E0E9
:100FD00070E080E090E00E946E06EECF282F30E0B7
:100FE000C217D3070CF48C2F9FB7F8948092E900B6
:100FF0002091E80025FF1DC0282F30E0C21BD30B35
:10100000F701815020F041914093F100FACFE20EB8
:10101000F31EBB2019F09092E8000AC08091E8000E
:1010200085FD07C09092E800BB24B394209709F097
:10103000B12C9FBFC1CF5D9884E68093C601101686
:10104000110644F081E090E0F6019383828380E012
:1010500090E001C0C801DF91CF911F910F91FF90E7
:10106000EF90DF90CF90BF90AF909F908F900895BA
:101070000E942C0E8091AE02882321F08BE090E03C
:101080000197F1F7089590E0FC01EA58FE4F249192
:10109000FC01EB56FE4F8491882399F090E0880F75
:1010A000991FFC01E859FE4FA591B491FC01E65A45
:1010B000FE4F859194918FB7F894EC91E22BEC93CD
:1010C0008FBF0895CF93DF93E0916802F09169029A
:1010D000EE0FFF1FE158FE4F60E080810E940A067C
:1010E000E0916802F0916902EE0FFF1FE758FE4F92
:1010F00060916A0280810E940A06C0E0D0E02091DF
:101100006D0230916E028091680290916902880FA1
:10111000991FFC01C217D30784F5ED58FE4F61E01B
:1011200080810E940A0680916B0290916C0282304D
:10113000910538F0880F991F880F991F059701971F
:10114000F1F7E0916802F0916902EE0FFF1FED5890
:10115000FE4F60E080810E940A0680916B029091B0
:101160006C028230910538F0880F991F880F991F03
:1011700005970197F1F72196C2CFE158FE4F61E044
:101180008081DF91CF910C940A06009769F0FC01F1
:1011900001900020E9F73197AF01481B590BBC01C2
:1011A0008AEC91E00C949D0180E090E008958F928C
:1011B0009F92AF92BF920F931F93CF93DF93CDB7C0
:1011C000DEB7A1970FB6F894DEBF0FBECDBF19A250
:1011D000423008F44AE08E010F5D1F4F842E912C9F
:1011E000A12CB12CA50194010E94FB0FE62FB9019F
:1011F000CA0101501109EA3014F4E05D01C0E95C54
:10120000D801EC93232B242B252B61F7C8010E94D6
:10121000C508A1960FB6F894DEBF0FBECDBFDF9113
:10122000CF911F910F91BF90AF909F908F90089595
:10123000CF92DF92EF92FF92CF93DF936C01990FE1
:10124000EE08FF08F7FE13C06DE28AEC91E00E9401
:101250002502EC0166277727CB016C197D098E09E1
:101260009F094AE00E94D708C80FD91F06C04AE06C
:10127000C701B6010E94D708EC0183E991E00E9402
:10128000C5088C0F9D1FDF91CF91FF90EF90DF90ED
:10129000CF9008958091B30281110DC082E08093B8
:1012A000AF0284E08093B0021092B2021092B102B9
:1012B00081E08093B3028FEA92E008958EBD000032
:1012C0000DB407FEFDCF8EB50895FF920F931F93C7
:1012D000CF93DF93182FF62E072FC8E7D2E060E0F8
:1012E0008CA90E940A06812F80680E945E098F2DBA
:1012F0000E945E0961E08CA90E940A060E943A08D9
:1013000060E08CA90E940A0681E0810F80680E943B
:101310005E09802F0E945E0961E08CA9DF91CF9168
:101320001F910F91FF900C940A06CF93DF93CDB7D6
:10133000DEB7C058D1090FB6F894DEBF0FBECDBFDF
:10134000789484B5826084BD84B5816084BD85B5A0
:10135000826085BD85B5816085BD80916E008160AC
:1013600080936E0010928100809181008260809352
:101370008100809181008160809381008091800054
:1013800081608093800080919100826080939100C1
:1013900080919100816080939100809190008160A4
:1013A000809390008091C10084608093C1008091FF
:1013B000C10082608093C1008091C10081608093F0
:1013C000C1008091C30081608093C3008091C00000
:1013D00082608093C0008091C20081608093C200CF
:1013E00080917A00846080937A0080917A00826094
:1013F00080937A0080917A00816080937A00809156
:101400007A00806880937A001092C9011092C50119
:101410001092C7018091D70081608093D70080EA45
:101420008093D80089B5806189BD89B5826089BD06
:1014300009B400FEFDCF61E070E080E090E00E9422
:101440006E068091D8008F7C80618093D800809157
:10145000E000807F8093E0008091E1008E7E8093A9
:10146000E1008DE08093E200559A209AE091DA0144
:10147000F091DB0182E08083E091D601F091D70109
:101480001082E091D801F091D90180E1808310921F
:10149000E201E091DE01F091DF0186E08083E091DE
:1014A000DC01F091DD01808180618083E091DC01CD
:1014B000F091DD01808188608083E091DC01F09112
:1014C000DD01808180688083E091DC01F091DD01A5
:1014D00080818F7D80838CB58C608CBD87E00E947D
:1014E000430860E087E00E940A0664E670E080E05E
:1014F00090E00E946E0661E087E00E940A0664E6C2
:1015000070E080E090E00E946E0662E07EEB8EE389
:101510000E94650962E370E080E090E00E946E0640
:1015200064E670E080E090E00E946E0666E071E0A4
:1015300088E30E94650962E370E080E090E00E9429
:101540006E0664E670E080E090E00E946E066BEF4D
:101550007FE180E20E94650964E670E080E090E04F
:101560000E946E066EEF7FE182E20E94650964E6EA
:1015700070E080E090E00E946E061E0121E6220EDF
:10158000311CAE014F5F5F4FEB965FAF4EAFEB97F5
:1015900088248A94912C1092770217E08AEC91E0CB
:1015A0000E94F80120917702181619061CF42223D4
:1015B00009F40EC2222309F408C280916F02883711
:1015C000A9F41092690210926802809170028B3225
:1015D00029F481E080936A020E946208809170027F
:1015E0008D3221F410926A020E94620880916F028B
:1015F0008B3269F480916B0290916C028456910950
:10160000181619060CF405C282E390E002C28D326E
:1016100059F480916B0290916C028C599F4F90937A
:101620006C0280936B021BC08136C9F403E010E0AA
:1016300061E08DE00E940A0664E670E080E090E0E0
:101640000E946E0660E08DE00E940A0664E670E08B
:1016500080E090E00E946E060150110949F78091E8
:101660006F02813709F091C18CE0ECE0F1E0DE011E
:10167000A359BF4F01900D928A95E1F78CE0D101FB
:101680001D928A95E9F721E0F1012083238780E309
:10169000E8E1F1E0DE01D19601900D928A95E1F743
:1016A00080E3EB96AEADBFADEB971D928A95E9F75F
:1016B00020E030E048EC51E429A73AA74BA75CA70B
:1016C00083E393E3A3EDBFEB8DA79EA7AFA7B8ABD2
:1016D00060E08091AC020E940A068EE30E945E09DF
:1016E00080E00E945E090E943A088E0103591F4F54
:1016F0002101DE01D196C158DF4FB983A883CF57AE
:10170000D040FE0131965F0128E732E0ED963FAF11
:101710002EAFED9738013CE0630E711C48E752E0B4
:10172000EF965FAF4EAFEF9780E00E945E09F82E14
:1017300080E00E945E09D8019D918D01292F30E043
:1017400040E150E0421B530BB40102C07595679510
:101750004A95E2F76F2170E0762F6627682BF20139
:1017600081912F01811121C02150310941E050E0C8
:1017700002C0440F551F2A95E2F79A01262337230A
:10178000232B99F0D40102C0AA0FBB1F9A95E2F750
:101790006A2B7B2B71956195710980E090E00E9426
:1017A000D20E9B01AC01505806C080E090E00E9430
:1017B000D20E9B01AC01C158DF4FE881F981CF57B0
:1017C000D0406191719181919191C158DF4FF9831E
:1017D000E883CF57D040D501CD90DD90ED90FD90BE
:1017E0005D010E94890FA70196010E94320EEF96BB
:1017F000EEADFFADEF976193719381939193EF9667
:10180000FFAFEEAFEF970E943A086016710609F03D
:101810008BCF61E08091AC020E940A0608EA12E0D8
:10182000ED96AEADBFADED97CD90DD90ED90FD9016
:10183000ED96BFAFAEAFED97A7019601C701B60118
:101840000E94F60F882319F085E891E01AC026015E
:101850003701E89477F82FEF3FEF4FE75FE7C301D9
:10186000B2010E94F60F81110FC02FEF3FEF4FE73B
:101870005FE7C301B2010E949E0E18162CF489E89E
:1018800091E00E94C50871C02FEF3FEF4FE75FE482
:10189000C701B6010E94840F18161CF48DE891E070
:1018A000F0CF2FEF3FEF4FE75FECC701B6010E948B
:1018B0009E0E87FDF3CF20E030E0A901C701B601FD
:1018C0000E949E0E87FF09C06DE28AEC91E00E94A3
:1018D0002502F7FAF094F7F8F0942EE632E143E0AF
:1018E0005AE3C701B6010E94320E6B017C010E94CF
:1018F000A30E2B013C010E94D20E9B01AC01C7013B
:10190000B6010E94310E6B017C014AE0C301B201B5
:101910000E94D7086EE28AEC91E00E94250284E0E2
:10192000B82EBA94BB2009F120E030E040E251E447
:10193000C701B6010E94890F2B013C010E94A30E32
:101940006B01E12CF12C4AE0C701B6010E94D708D7
:10195000C701B6010E94D20E9B01AC01C301B201C6
:101960000E94310E6B017C01DCCF81E991E00E9485
:10197000C508ED96EEADFFADED970E171F0709F008
:101980004FCF83E991E00E94C50880916F028437B0
:10199000E1F486E991E00E94C50883E991E00E94A4
:1019A000C50887EA91E00E94C50880916B0290917A
:1019B0006C020E9418098FEA91E00E94C50880918C
:1019C0006D0290916E020E9418090E949D02E3CD63
:1019D0008AEC91E00E94D601E091BF018D3079F050
:1019E000AE2FB0E0A859BD4F17968C93EF5FE8304B
:1019F00018F4E093BF01D2CD1093BF01CFCDF0E03A
:101A0000E859FD4F17821092BF0151E050937702C1
:101A1000C5CD90936C0280936B02B7CF60E071E00C
:101A20008AE30E9465099FB7F89480916702882332
:101A300019F081508093670280916702811103C081
:101A40008CB58F7B8CBD9FBF0895AF92BF92CF9214
:101A5000DF92EF92FF920F931F93CF93DF93109239
:101A6000BE021092BD0288EE93E0A0E0B0E0809349
:101A7000BF029093C002A093C102B093C20223E5BB
:101A800031E03093BC022093BB022FEF3FEF309345
:101A9000C8022093C7021092CD011092CC0180930E
:101AA000CE019093CF01A093D001B093D10185E6F0
:101AB00091E09093CB018093CA018DEC90E09093DC
:101AC000D7018093D6018CEC90E09093D90180935C
:101AD000D80188EC90E09093DB018093DA0189ECE7
:101AE00090E09093DD018093DC018AEC90E090938C
:101AF000DF018093DE018EEC90E09093E101809312
:101B0000E0011092E3011092E4011092E5011092BD
:101B1000E60185E090E09093AD028093AC02CFB7F0
:101B2000F89480916702811124C0E6EAF1E0849183
:101B3000E7E8F1E09491E82FF0E0EE0FFF1FE8599D
:101B4000FE4FA591B491EC91E92321F461E081E18C
:101B50000E940A0681E10E9443088CB580618CBD19
:101B60008CB580648CBD8FE00E94430880E10E94A8
:101B70004308809167028F5F80936702CFBF85E043
:101B80000E9443088CB58F7D8CBD8CB58C608CBD5C
:101B90008CB58C7F81608CBD8DB58E7F8DBD61E0F5
:101BA00085E00E940A061092AE0260E08091AC02CD
:101BB0000E940A060E943A0861E08091AC020E94ED
:101BC0000A068DE00E94430860E08DE00E940A064C
:101BD000CFE7D1E089E7E82E81E0F82E03E711E0B6
:101BE00095E8A92E91E0B92EC88022968C2D0E94EE
:101BF0004308F701D080F2E0EF0EF11C8D2D0E941A
:101C00004308F80180810E5F1F4F0E94430861E086
:101C10008C2D0E940A0661E08D2D0E940A06AC16EA
:101C2000BD0611F780E496E090936E0280936D02FA
:101C300088EE93E090936C0280936B02DF91CF91DA
:101C40001F910F91FF90EF90DF90CF90BF90AF90DA
:101C50000895F8940C94231081E090E0F8940C948B
:101C600023105058BB27AA270E94490E0C944A0FF4
:101C70000E943C0F38F00E94430F20F039F49F3F40
:101C800019F426F40C94390F0EF4E095E7FB0C944C
:101C9000330FE92F0E945B0F58F3BA1762077307DF
:101CA0008407950720F079F4A6F50C947D0F0EF4C7
:101CB000E0950B2EBA2FA02D0B01B90190010C015C
:101CC000CA01A0011124FF27591B99F0593F50F474
:101CD000503E68F11A16F040A22F232F342F4427CC
:101CE000585FF3CF469537952795A795F0405395C4
:101CF000C9F77EF41F16BA0B620B730B840BBAF094
:101D00009150A1F0FF0FBB1F661F771F881FC2F7FE
:101D10000EC0BA0F621F731F841F48F48795779512
:101D20006795B795F7959E3F08F0B0CF9395880FCC
:101D300008F09927EE0F9795879508950E940F0F49
:101D400008F481E008950E94630F88F09F5798F08F
:101D5000B92F9927B751B0F0E1F0660F771F881FB0
:101D6000991F1AF0BA95C9F714C0B13091F00E94CA
:101D70007D0FB1E008950C947D0F672F782F882791
:101D8000B85F39F0B93FCCF3869577956795B395F1
:101D9000D9F73EF490958095709561957F4F8F4F60
:101DA0009F4F0895E89409C097FB3EF49095809565
:101DB000709561957F4F8F4F9F4F9923A9F0F92F11
:101DC00096E9BB279395F695879577956795B7958F
:101DD000F111F8CFFAF4BB0F11F460FF1BC06F5F75
:101DE0007F4F8F4F9F4F16C0882311F096E911C087
:101DF000772321F09EE8872F762F05C0662371F0A8
:101E000096E8862F70E060E02AF09A95660F771FBB
:101E1000881FDAF7880F9695879597F90895990F97
:101E20000008550FAA0BE0E8FEEF16161706E807A4
:101E3000F907C0F012161306E407F50798F0621BC5
:101E4000730B840B950B39F40A2661F0232B242B9A
:101E5000252B21F408950A2609F4A140A6958FEFB9
:101E6000811D811D089597F99F6780E870E060E00B
:101E700008959FEF80EC089500240A941616170623
:101E800018060906089500240A941216130614066B
:101E900005060895092E0394000C11F4882352F0CE
:101EA000BB0F40F4BF2B11F460FF04C06F5F7F4F86
:101EB0008F4F9F4F089557FD9058440F551F59F06D
:101EC0005F3F71F04795880F97FB991F61F09F3F27
:101ED00079F087950895121613061406551FF2CF50
:101EE0004695F1DF08C0161617061806991FF1CFA0
:101EF00086957105610508940895E894BB276627C7
:101F00007727CB0197F908950E940F0F08F48FEF00
:101F100008950E949C0F0C944A0F0E943C0F38F0C9
:101F20000E94430F20F0952311F00C94330F0C9472
:101F3000390F11240C947E0F0E945B0F70F3959F54
:101F4000C1F3950F50E0551F629FF001729FBB27B0
:101F5000F00DB11D639FAA27F00DB11DAA1F649F4C
:101F60006627B00DA11D661F829F2227B00DA11DFF
:101F7000621F739FB00DA11D621F839FA00D611D85
:101F8000221F749F3327A00D611D231F849F600DA6
:101F9000211D822F762F6A2F11249F5750409AF0CF
:101FA000F1F088234AF0EE0FFF1FBB1F661F771F5B
:101FB000881F91505040A9F79E3F510580F00C9426
:101FC000330F0C947E0F5F3FE4F3983ED4F3869575
:101FD00077956795B795F795E7959F5FC1F7FE2BC6
:101FE000880F911D9695879597F908950E940F0F78
:101FF000880B990B0895A1E21A2EAA1BBB1BFD01A9
:102000000DC0AA1FBB1FEE1FFF1FA217B307E407D7
:10201000F50720F0A21BB30BE40BF50B661F771F2F
:10202000881F991F1A9469F760957095809590950F
:102030009B01AC01BD01CF010895EE0FFF1F05907C
:10204000F491E02D099410E0CBEDD0E004C0FE0146
:102050000E941D102196CC3DD107C9F7F894FFCFFF
:10206000FFFFFFFF00E10000000000000E0E0E0E5B
:102070000E0E0E0E0E0E0C0C4F771E3BCDCC4C3CB4
:10208000CDCC4C3CCDCC4C3CB81E5540B81E554038
:10209000B81E55400000003F0000003F0000003F18
:1020A000295C0F3EBF49533A00C180810000000007
:1020B0000000003107B20752074707980756077418
:1020C000070000000025029D01C7017102F801D63A
:1020D00001EA010B0009000C000A000200040003E1
:1020E00000080006006E616E00696E66006F76661D
:1020F000002C000D0A004D6F746F722050617261E8
:102100006D65746572730053706565643A200053A1
:062110007465703A200026
:00000001FF
