:100000000C94E1000C9409010C9409010C94090171
:100010000C9409010C9409010C9409010C94090138
:100020000C9409010C9409010C9447040C94B90434
:100030000C9409010C9409010C9409010C94090118
:100040000C9409010C9409010C9409010C94090108
:100050000C9409010C9409010C9409010C94FD0302
:100060000C9409010C9409010C9409010C940901E8
:100070000C9409010C9409010C9409010C940901D8
:100080000C9409010C9409010C9409010C940901C8
:100090000C9409010C9409010C9409010C940901B8
:1000A0000C9409010C9409010C940901C203C503C5
:1000B000B403B803BC03E603E603E603C903CD03B8
:1000C000D103D703DB03E603E103000000020009CC
:1000D0000F0000030401000C0000000000000000FD
:1000E00000000000000000000000000000250028C3
:1000F000002B002E00310000000000240027002A01
:10010000002D00300004040404040304050202026C
:1001100002040302020202060606060606040402A0
:1001200002020404040802011040804010204080B4
:10013000408008020401804020100201108010203D
:10014000404020070605040100080A0B0C0D0908B1
:100150000B0002020200000904000001020200007C
:1001600005240010010524010101042402060524D0
:100170000600010705810310004009040100020A7E
:10018000000000070502024000000705830240004E
:10019000000403090412010002EF0201404123366A
:1001A0008000010102030141726475696E6F204C89
:1001B0004C430055534220494F20426F6172640006
:1001C000F70611241FBECFEFDAE0DEBFCDBF11E08E
:1001D000A0E0B1E0E6E0F1E102C005900D92AA33A3
:1001E000B107D9F721E0AAE3B1E001C01D92A93A15
:1001F000B207E1F710E0C1EED0E004C02197FE01A4
:100200000E947408C03ED107C9F70E940C070C94E5
:100210001C080C9400002091A801211103C08FEF4D
:100220009FEF08955FB7F89422E02093E9002091B2
:10023000F20030E01216130614F421E030E0422FF1
:10024000FC0184E6415038F028988093A7019091F2
:10025000F1009193F7CF2115310521F08091F20043
:10026000882319F05FBFC90108958BE68093E800E9
:10027000F9CF2FB7F89483E08093E9009091E800DC
:10028000892F807295FF04C09091F20080E4891B51
:100290002FBF0895CF92DF92EF92FF920F931F939B
:1002A000CF93DF936C017A018B01C0E0D0E0CE15D3
:1002B000DF0581F0D8016D918D01D601ED91FC91A2
:1002C0000190F081E02DC6010995892B11F021964E
:1002D000EECF7E01C701DF91CF911F910F91FF906B
:1002E000EF90DF90CF90089580919F0181110DC014
:1002F00082E080939B0184E080939C0110929E0198
:1003000010929D0181E080939F018BE991E0089517
:10031000CF93DF931F92CDB7DEB76983DC01ED91F8
:10032000FC910280F381E02D41E050E0BE016F5F5F
:100330007F4F09950F90DF91CF91089583E08093CF
:10034000E9008091F200882319F08AE38093E800A5
:1003500008950E94390190E00895CF93DF931F9292
:10036000CDB7DEB7FC018485958597FD05C02FEFDD
:100370003FEF358724870BC0CE0101960E940B0109
:10038000019719F4898190E002C08FEF9FEF0F90E1
:10039000DF91CF9108950F931F93CF93DF931F9217
:1003A000CDB7DEB78C01FC018485958597FF0EC023
:1003B000CE0101960E940B01019719F4898190E00A
:1003C00002C08FEF9FEFF80195878487F80184853D
:1003D00095850F90DF91CF911F910F910895FC01AA
:1003E0008485958597FD0BC09FB7F89482E0809334
:1003F000E9008091F2009FBF90E0019608959FB7B9
:10040000F89482E08093E9008091F2009FBF90E031
:100410000895089580E090E008953FB7F8948091A2
:10042000450190914601A0914701B091480126B540
:10043000A89B05C02F3F19F00196A11DB11D3FBF1C
:10044000BA2FA92F982F8827820F911DA11DB11DAA
:10045000BC01CD0142E0660F771F881F991F4A95A6
:10046000D1F70895CF92DF92EF92FF920E940D0292
:100470006B017C010E940D02DC01CB018C199D09EE
:10048000AE09BF09883E9340A105B10598F3FF90DE
:10049000EF90DF90CF9008958F929F92AF92BF928E
:1004A000CF92DF92EF92FF920F931F93CF93DF9340
:1004B0006C017B018A0180910B01882309F458C0EB
:1004C0008091A801882309F453C080914A0180FFDC
:1004D00005C08091E00082608093E000E801B12CCB
:1004E0008AEFA82E93E0892E2AE3922E209711F40A
:1004F000BB20B9F10E943901811106C0AA94AA203B
:10050000B9F10E943202F2CF282F30E0C217D30790
:100510000CF48C2F9FB7F8948092E9002091E800AA
:1005200025FF1DC0282F30E0C21BD30BF7018150DF
:1005300020F041914093F100FACFE20EF31EBB2070
:1005400019F09092E8000AC08091E80085FD07C08C
:100550009092E800BB24B394209709F0B12C9FBF80
:10056000C5CF5D9884E6809349011016110644F0CA
:1005700081E090E0F6019383828380E090E001C007
:10058000C801DF91CF911F910F91FF90EF90DF9005
:10059000CF90BF90AF909F908F90089540913C0175
:1005A00050913D0120913A0130913B014217530790
:1005B000B4F49091E8009570E1F39091E80092FD19
:1005C00019C08093F10080913C0190913D0101960A
:1005D0008F739927892B19F48EEF8093E80080910F
:1005E0003C0190913D01019690933D0180933C0127
:1005F00081E0089580E00895DF92EF92FF920F93DB
:100600001F93CF93DF93D82EF92EE42E062F10E000
:10061000C8010196880F0E94CE0283E00E94CE029C
:10062000CD2DDF2D0C0F1D1FC017D10789F0E7FE60
:1006300003C0FE01849101C088810E94CE02F82E81
:1006400080E00E94CE028F2121968111EDCF01C062
:1006500081E0DF91CF911F910F91FF90EF90DF909C
:100660000895DF92EF92FF920F931F93CF93DF9342
:10067000D82E8A017B01E40EF51EEB01CE15DF05B5
:1006800071F0D7FE03C0FE01849101C088810E94F1
:10069000CE0221968111F2CF8FEF9FEF01C0C801EA
:1006A000DF91CF911F910F91FF90EF90DF90089510
:1006B0000F931F93CF93DF931F92CDB7DEB782E0E6
:1006C000898342E450E06FE471E080E80E943103E6
:1006D0000E947401DC0112960D911C911397011573
:1006E000110589F0D801ED91FC910280F381E02D94
:1006F000BE016F5F7F4FC801099597FD04C0F801E7
:1007000000851185ECCF89810F90DF91CF911F91EA
:100710000F910895615030F02091F100FC01208389
:100720000196F8CF289884E68093A7010895362F84
:1007300090E0FC01E653FF4F4491FC01EC5DFE4F5D
:100740002491FC01EB5FFE4F8491882309F452C091
:100750004423E1F150E0FA013197EF30F105B0F5B3
:10076000EA5AFF4F0C947408909180009F7707C05D
:10077000909180009F7D03C090918000977F90931F
:10078000800024C094B59F7702C094B59F7D94BD2E
:100790001DC0909190009F7707C0909190009F7D21
:1007A00003C090919000977F909390000FC090911C
:1007B000C0009F7703C09091C0009F7D9093C000C0
:1007C00005C09091C200977F9093C200E82FF0E09F
:1007D000EE0FFF1FE751FF4FA591B4919FB7F8941B
:1007E000311104C08C912095282302C0EC912E2B4E
:1007F0002C939FBF08950E946F081F920F920FB60F
:100800000F9211242F933F938F939F93AF93BF9396
:100810008091410190914201A0914301B091440126
:100820003091400123E0230F2D3720F40196A11DC4
:10083000B11D05C026E8230F0296A11DB11D20930E
:1008400040018093410190934201A0934301B093F2
:1008500044018091450190914601A0914701B091DA
:1008600048010196A11DB11D809345019093460159
:10087000A0934701B0934801BF91AF919F918F9191
:100880003F912F910F900FBE0F901F9018951F92C0
:100890000F920FB60F9211248F939F938091E100D6
:1008A0009091E100937F9093E10083FF0FC010923D
:1008B000E90091E09093EB001092EC0092E39093AA
:1008C000ED001092A80198E09093F00082FF20C004
:1008D00093E09093E9009091F200992319F09AE344
:1008E0009093E80090914901992339F09091490142
:1008F000915090934901992389F19091A7019923EF
:1009000039F09091A70191509093A701992341F15B
:1009100084FF10C08091E2008E7E81608093E200AF
:100920008091E1008F7E8093E10080914A018E7E6C
:10093000806111C080FF16C08091E2008E7E8061D0
:100940008093E2008091E1008E7E8093E1008091AF
:100950004A018E7E816080934A0104C05D9ACDCFAA
:10096000289AD6CF9F918F910F900FBE0F901F9016
:1009700018951F920F920FB60F921124CF92DF920B
:10098000EF92FF920F931F932F933F934F935F9399
:100990006F937F938F939F93AF93BF93EF93FF9347
:1009A000CF93DF93CDB7DEB76C97DEBFCDBF10928C
:1009B000E9008091E80083FFFBC168E0CE01459625
:1009C0000E948A0382EF8093E8008D8987FF05C02B
:1009D0009091E80090FFFCCF03C09EEF9093E80059
:1009E000982F907609F0C6C09E894F89588D2F891F
:1009F000F88C91110CC0803829F480913F018093CC
:100A0000F10002C01092F1001092F10045C1913046
:100A100051F4811141C14130510509F03DC180912E
:100A20003F018D7F0BC0933061F4811135C141309E
:100A3000510509F031C180913F01826080933F01EF
:100A40002BC1953049F48091E80080FFFCCF822FC4
:100A500080688093E30020C1963009F05EC00B8D62
:100A60001C8D22E01092E90010923D0110923C0191
:100A7000F21232C010923B0110923A010E945803C8
:100A800099E0BE016F5F7F4FDB01E92F1D92EA9570
:100A9000E9F79983FA8291E09E8390EA98879AEF2A
:100AA000998720913C0130913D01275F3F4F3C8366
:100AB0002B838D831092E90010923D0110923C012E
:100AC00010933B0100933A0149E050E080E00E941E
:100AD00031030E945803E0C010933B0100933A0198
:100AE0000E947401DC0112960D911C91139701155F
:100AF000110509F4BBC0D801ED91FC910480F5818A
:100B0000E02DBE016B5E7F4FC8010995009709F08B
:100B1000C7C0F80100851185EACF973009F445C1B7
:100B2000983021F481E08093F100B6C0993009F04B
:100B3000B3C0837009F039C1E1E2F1E081E031E056
:100B400096E32081211109C08EE78093EA0010927C
:100B5000EA008F898093A8019FC08093E9003093B9
:100B6000EB0021912093EC009093ED008F5F873094
:100B700041F7EACF8B8D9C8D1092E90010923D01D8
:100B800010923C0190933B0180933A01898D811131
:100B900053C08E899D89913A49F4813209F005C18B
:100BA00047E050E064E071E080E0BBC0913209F0C2
:100BB000FCC0833269F48F89988DA0E0B0E0809307
:100BC000000190930101A0930201B093030164C05E
:100BD000803269F48091E80082FFFCCF67E084E016
:100BE00091E00E948A038BEF8093E80055C0823227
:100BF00009F052C08F8980930B01EEEFFFE78591DA
:100C000094918B3F9C4D19F0E0E0F8E002C0EEEFCC
:100C1000FAE08091040190910501A0910601B09144
:100C20000701803B9440A105B10509F09EC0809169
:100C30000B0180FF79C099C00E947401FC01028100
:100C400013810115110509F4B0C0D801ED91FC9193
:100C50000190F081E02DBE016B5E7F4FC8010995C8
:100C600081111AC0F80100851185EBCFF1E0FF1664
:100C700009F44EC0F3E0FF1298C08F89882309F46D
:100C80004AC0823089F440E86CE083EB91E00E9436
:100C9000FC02882309F489C08EEF8093E80088C0A5
:100CA00018161906CCF381C0813029F440E86BE0B6
:100CB00087EA91E0ECCF833009F077C00E9474019D
:100CC000DC011296ED90FC9013978E010F5F1F4F81
:100CD0006801E114F10479F0D701ED91FC910680EF
:100CE000F781E02DB801C7010995080F111DF70123
:100CF000E084F184EECFD8011C92F601019000202F
:100D0000E9F73197BF016C197D0940E0C601BFCFFB
:100D100065E971E002C061E971E0FB01449150E0D6
:100D200080E80E943103B8CFEE3F2AE0F20751F08D
:100D3000808191818737A7E79A0721F09093FF0A76
:100D40008093FE0A87E797E7918380838091600014
:100D500080933E019BE088E10FB6F894A8958093BC
:100D600060000FBE9093600097CF8081918187379C
:100D7000974709F091CFA895809160008861809392
:100D8000600080913E0180936000EE3FBAE0FB0777
:100D900039F08091FE0A9091FF0A918380837CCF85
:100DA0001092FF0A1092FE0A77CF81E28093EB0047
:100DB0006C960FB6F894DEBF0FBECDBFDF91CF911A
:100DC000FF91EF91BF91AF919F918F917F916F9123
:100DD0005F914F913F912F911F910F91FF90EF9055
:100DE000DF90CF900F900FBE0F901F901895EBE4FF
:100DF000F1E01382128288EE93E0A0E0B0E08483F9
:100E00009583A683B7838BE291E0918380838FEFF4
:100E10009FEF958784870895789484B5826084BD18
:100E200084B5816084BD85B5826085BD85B58160EE
:100E300085BD80916E00816080936E00109281006C
:100E40008091810082608093810080918100816027
:100E500080938100809180008160809380008091E8
:100E600091008260809391008091910081608093D5
:100E70009100809190008160809390008091C100EA
:100E800084608093C1008091C10082608093C10022
:100E90008091C10081608093C1008091C300816016
:100EA0008093C3008091C00082608093C0008091D5
:100EB000C20081608093C20080917A008460809338
:100EC0007A0080917A00826080937A0080917A0023
:100ED000816080937A0080917A00806880937A00A4
:100EE0001092A80110923F0110924A018091D70000
:100EF00081608093D70080EA8093D80089B58061B3
:100F000089BD89B5826089BD09B400FEFDCF0E940C
:100F100032028091D8008F7C80618093D8008091CC
:100F2000E000807F8093E0008091E1008E7E8093DE
:100F3000E1008DE08093E200559A209A20E231E0B2
:100F4000ACE0B1E08D919D919927FC01EC5DFE4FE5
:100F50004491FC01EB5FFE4F8491882399F090E06F
:100F6000880F991FFC01E950FF4FC591D491FC01F6
:100F7000E751FF4F859194918FB7F894E881E42B66
:100F8000E8838FBF2A173B07E9F653E4852E51E02B
:100F9000952E44244A9463E0562E612C712C70E007
:100FA000A72E70E0B72EF401849190917B0083FB13
:100FB000CC24C0F8D12C960145E0220F331F4A956E
:100FC000E1F79F7D292B20937B00877080648093BD
:100FD0007C0080917A00806480937A0080917A000E
:100FE00086FDFCCFA091780080917900B0E0B82B0D
:100FF0002AE030E00E947A08A30192010E941F08B3
:1010000079010CE011E0C0E0D0E0CE15DF0514F46A
:1010100061E001C060E0F80180810E9497032196A1
:101020000E5F1F4FCA30D10581F7A114B10409F436
:10103000BACF0E940000B7CFF8940C948108052E17
:1010400097FB1EF400940E94360857FD07D00E94BB
:101050003E0807FC03D04EF40C943608509540959A
:10106000309521953F4F4F4F5F4F08959095809554
:10107000709561957F4F8F4F9F4F0895A1E21A2E73
:10108000AA1BBB1BFD010DC0AA1FBB1FEE1FFF1F2C
:10109000A217B307E407F50720F0A21BB30BE40B7C
:1010A000F50B661F771F881F991F1A9469F76095C3
:1010B0007095809590959B01AC01BD01CF0108957D
:1010C000A29FB001B39FC001A39F700D811D112489
:1010D000911DB29F700D811D1124911D089581E015
:1010E00090E0F8940C948108EE0FFF1F0590F491A6
:1010F000E02D09940E946008B7FF0895821B930BAE
:061100000895F894FFCFF2
:10110600FFFFFFFF00E100000000000002000300F7
:101116000400050006000700080009000A000B008D
:1011260000C180810000000000000088014C02A977
:0A113600019E01EF01AD01CB0100A5
:00000001FF
