:100000000C94DB000C9403010C9403010C94030189
:100010000C9403010C9403010C9403010C94030150
:100020000C9403010C9403010C94FB040C946D05D7
:100030000C9403010C9403010C9403010C94030130
:100040000C9403010C9403010C9403010C94030120
:100050000C9403010C9403010C9403010C94030809
:100060000C9403010C94D1070C94AB070C9403017E
:100070000C9403010C9403010C9403010C940301F0
:100080000C9403010C9403010C9403010C940301E0
:100090000C9403010C9403010C9403010C940301D0
:1000A0000C9403010C9403010C940301DB03DE03A5
:1000B000CD03D103D503FF03FF03FF03E203E603F0
:1000C000EA03F003F403FF03FA030000000200094F
:1000D0000F0000030401000C0000000000000000FD
:1000E00000000000000000000000000000250028C3
:1000F000002B002E00310000000000240027002A01
:10010000002D00300004040404040304050202026C
:1001100002040302020202060606060606040402A0
:1001200002020404040802011040804010204080B4
:10013000408008020401804020100201108010203D
:10014000404020080B0002020200000904000001E8
:10015000020200000524001001052401010104240D
:10016000020605240600010705810310004009046A
:100170000100020A00000007050202400000070516
:1001800083024000000403090412010002EF02018F
:100190004041233680000101020301417264756908
:1001A0006E6F204C4C430055534220494F20426F04
:1001B000617264004D0811241FBECFEFDAE0DEBF8C
:1001C000CDBF11E0A0E0B1E0EAE5F3E102C00590A7
:1001D0000D92A434B107D9F722E0A4E4B1E001C044
:1001E0001D92A035B207E1F710E0CBEDD0E004C0DE
:1001F0002197FE010E94A509CA3DD107C9F70E94B7
:100200008A080C949D090C94000020916201211130
:1002100003C08FEF9FEF08955FB7F89422E020931B
:10022000E9002091F20030E01216130614F421E0E8
:1002300030E0422FFC0184E6415038F0289880934A
:1002400061019091F1009193F7CF2115310521F0D3
:100250008091F200882319F05FBFC90108958BE6F1
:100260008093E800F9CF2FB7F89483E08093E900FA
:100270009091E800892F807295FF04C09091F20060
:1002800080E4891B2FBF08958091590181110DC011
:1002900082E08093550184E08093560110925801CA
:1002A0001092570181E08093590185E591E008950E
:1002B000CF93DF931F92CDB7DEB76983DC01ED9159
:1002C000FC910280F381E02D41E050E0BE016F5FC0
:1002D0007F4F09950F90DF91CF91089583E0809330
:1002E000E9008091F200882319F08AE38093E80006
:1002F00008950E94330190E00895CF93DF931F92F9
:10030000CDB7DEB7FC018485958597FD05C02FEF3D
:100310003FEF358724870BC0CE0101960E9405016F
:10032000019719F4898190E002C08FEF9FEF0F9041
:10033000DF91CF9108950F931F93CF93DF931F9277
:10034000CDB7DEB78C01FC018485958597FF0EC083
:10035000CE0101960E940501019719F4898190E070
:1003600002C08FEF9FEFF80195878487F80184859D
:1003700095850F90DF91CF911F910F910895FC010A
:100380008485958597FD0BC09FB7F89482E0809394
:10039000E9008091F2009FBF90E0019608959FB719
:1003A000F89482E08093E9008091F2009FBF90E092
:1003B000089540914F015091500120914D0130918D
:1003C0004E0142175307B4F49091E8009570E1F3A1
:1003D0009091E80092FD19C08093F10080914F0147
:1003E0009091500101968F739927892B19F48EEF04
:1003F0008093E80080914F01909150010196909375
:10040000500180934F0181E0089580E00895DF92CC
:10041000EF92FF920F931F93CF93DF93D82EF92E75
:10042000E42E062F10E0C8010196880F0E94D90122
:1004300083E00E94D901CD2DDF2D0C0F1D1FC017A9
:10044000D10789F0E7FE03C0FE01849101C08881D5
:100450000E94D901F82E80E00E94D9018F212196B7
:100460008111EDCF01C081E0DF91CF911F910F91FC
:10047000FF90EF90DF900895DF92EF92FF920F933D
:100480001F93CF93DF93D82E8A017B01E40EF51ED4
:10049000EB01CE15DF0571F0D7FE03C0FE0184919C
:1004A00001C088810E94D90121968111F2CF8FEF7E
:1004B0009FEF01C0C801DF91CF911F910F91FF9075
:1004C000EF90DF9008950F931F93CF93DF931F92C8
:1004D000CDB7DEB782E0898342E450E063E471E0A7
:1004E00080E80E943C020E944401DC0112960D91BA
:1004F0001C9113970115110589F0D801ED91FC911C
:100500000280F381E02DBE016F5F7F4FC801099526
:1005100097FD04C0F80100851185ECCF89810F900B
:10052000DF91CF911F910F910895615030F020918C
:10053000F100FC0120830196F8CF289884E680938F
:1005400061010895CF92DF92EF92FF920F931F9374
:10055000CF93DF936C017A018B01C0E0D0E0CE1520
:10056000DF0581F0D8016D918D01D601ED91FC91EF
:100570000190F081E02DC6010995892B11F021969B
:10058000EECF7E01C701DF91CF911F910F91FF90B8
:10059000EF90DF90CF900895FC01538D448D252F6F
:1005A00030E0842F90E0821B930B541710F0CF960D
:1005B000089501970895FC01918D828D981761F03F
:1005C000828DDF01A80FB11D5D968C91928D9F5F8A
:1005D0009F73928F90E008958FEF9FEF0895FC0135
:1005E000918D828D981731F0828DE80FF11D858DE8
:1005F00090E008958FEF9FEF0895FC01918D228D7B
:10060000892F90E0805C9F4F821B91098F739927FF
:100610000895FC01848DDF01A80FB11DA35ABF4FBF
:100620002C91848D90E001968F739927848FA689F1
:10063000B7892C93A089B1898C9182748C93938D06
:10064000848D981306C00288F389E02D80818F7D08
:1006500080830895EF92FF920F931F93CF93DF93C0
:10066000EC0181E0888F9B8D8C8D981305C0E88903
:10067000F989808185FD26C0F62E0B8D10E00F5F75
:100680001F4F0F731127E02E8C8DE8120CC00FB690
:1006900007FCFACFE889F989808185FFF5CFCE0183
:1006A0000E940903F1CF8B8DFE01E80FF11DE35A83
:1006B000FF4FF0829FB7F8940B8FEA89FB89808106
:1006C000806209C09FB7F894EE89FF896083E8894A
:1006D000F9898081827480839FBF81E090E0DF91FF
:1006E000CF911F910F91FF90EF900895CF93DF93DB
:1006F000EC01888D8823C9F0EA89FB89808185FD1A
:1007000005C0A889B9898C9186FD0FC00FB607FC7A
:10071000F5CF808185FFF2CFA889B9898C9185FFBB
:10072000EDCFCE010E940903E7CFDF91CF9108956D
:1007300083EB91E00E94FD0221E0892B09F420E087
:10074000822F089580E090E0892B29F00E94980381
:1007500081110C9400000895089580E090E00895C0
:10076000362F90E0FC01E653FF4F4491FC01EC5D15
:10077000FE4F2491FC01EB5FFE4F8491882309F426
:1007800052C04423E1F150E0FA013197EF30F10516
:10079000B0F5EA5AFF4F0C94A509909180009F771D
:1007A00007C0909180009F7D03C090918000977F4B
:1007B0009093800024C094B59F7702C094B59F7D2C
:1007C00094BD1DC0909190009F7707C090919000BC
:1007D0009F7D03C090919000977F909390000FC0F1
:1007E0009091C0009F7703C09091C0009F7D90932F
:1007F000C00005C09091C200977F9093C200E82F7F
:10080000F0E0EE0FFF1FE751FF4FA591B4919FB7A6
:10081000F894311104C08C912095282302C0EC91EA
:100820002E2B2C939FBF08953FB7F89480914901D8
:1008300090914A01A0914B01B0914C0126B5A89B23
:1008400005C02F3F19F00196A11DB11D3FBFBA2F62
:10085000A92F982F8827820F911DA11DB11DBC01C2
:10086000CD0142E0660F771F881F991F4A95D1F787
:1008700008958F929F92AF92BF92CF92DF92EF92A4
:10088000FF926B017C010E9414044B015C01C114B6
:10089000D104E104F104F1F00E941404DC01CB0165
:1008A00088199909AA09BB09883E9340A105B10599
:1008B00070F321E0C21AD108E108F10888EE880E31
:1008C00083E0981EA11CB11CC114D104E104F10401
:1008D00019F7DDCFFF90EF90DF90CF90BF90AF90F2
:1008E0009F908F9008958F929F92AF92BF92CF92D8
:1008F000DF92EF92FF920F931F93CF93DF936C01E0
:100900007B018A0180910B01882309F45CC08091EE
:100910006201882309F457C08091540180FF05C00B
:100920008091E00082608093E000E801B12C8AEFC2
:10093000A82E93E0892E2AE3922E209711F4BB2053
:10094000D9F10E94330181110AC0AA94AA20D9F1D9
:1009500061E070E080E090E00E943904EECF282F43
:1009600030E0C217D3070CF48C2F9FB7F894809215
:10097000E9002091E80025FF1DC0282F30E0C21BB0
:10098000D30BF701815020F041914093F100FACF51
:10099000E20EF31EBB2019F09092E8000AC080918D
:1009A000E80085FD07C09092E800BB24B39420972F
:1009B00009F0B12C9FBFC1CF5D9884E680935301AD
:1009C0001016110644F081E090E0F60193838283D3
:1009D00080E090E001C0C801DF91CF911F910F919D
:1009E000FF90EF90DF90CF90BF90AF909F908F904F
:1009F00008950E94A0091F920F920FB60F92112422
:100A00008F939F938091E1009091E100937F909369
:100A1000E10083FF0FC01092E90091E09093EB009A
:100A20001092EC0092E39093ED001092620198E036
:100A30009093F00082FF20C093E09093E9009091A2
:100A4000F200992319F09AE39093E80090915301F2
:100A5000992339F090915301915090935301992328
:100A600089F190916101992339F090916101915040
:100A700090936101992341F184FF10C08091E200BD
:100A80008E7E81608093E2008091E1008F7E809372
:100A9000E100809154018E7E806111C080FF16C0FC
:100AA0008091E2008E7E80618093E2008091E1007F
:100AB0008E7E8093E100809154018E7E81608093D0
:100AC000540104C05D9ACDCF289AD6CF9F918F91C3
:100AD0000F900FBE0F901F9018951F920F920FB698
:100AE0000F921124CF92DF92EF92FF920F931F93F8
:100AF0002F933F934F935F936F937F938F939F9326
:100B0000AF93BF93EF93FF93CF93DF93CDB7DEB750
:100B10006C97DEBFCDBF1092E9008091E80083FFA3
:100B2000FBC168E0CE0145960E94950282EF80935A
:100B3000E8008D8987FF05C09091E80090FFFCCF09
:100B400003C09EEF9093E800982F907609F0C6C0FE
:100B50009E894F89588D2F89F88C91110CC080384F
:100B600029F4809152018093F10002C01092F100AB
:100B70001092F10045C1913051F4811141C14130D1
:100B8000510509F03DC1809152018D7F0BC093301A
:100B900061F4811135C14130510509F031C18091B5
:100BA00052018260809352012BC1953049F48091AB
:100BB000E80080FFFCCF822F80688093E30020C193
:100BC000963009F05EC00B8D1C8D22E01092E9007A
:100BD0001092500110924F01F21232C010924E0149
:100BE00010924D010E94630299E0BE016F5F7F4F3A
:100BF000DB01E92F1D92EA95E9F79983FA8291E0EA
:100C00009E8390EA98879AEF998720914F013091BF
:100C10005001275F3F4F3C832B838D831092E90067
:100C20001092500110924F0110934E0100934D010C
:100C300049E050E080E00E943C020E946302E0C074
:100C400010934E0100934D010E944401DC01129665
:100C50000D911C9113970115110509F4BBC0D80122
:100C6000ED91FC910480F581E02DBE016B5E7F4F1C
:100C7000C8010995009709F0C7C0F80100851185E2
:100C8000EACF973009F445C1983021F481E0809390
:100C9000F100B6C0993009F0B3C0837009F039C1D2
:100CA000EDE0F1E081E031E096E32081211109C01F
:100CB0008EE78093EA001092EA008F8980936201A8
:100CC0009FC08093E9003093EB0021912093EC00CA
:100CD0009093ED008F5F873041F7EACF8B8D9C8D2D
:100CE0001092E9001092500110924F0190934E0122
:100CF00080934D01898D811153C08E899D89913AD0
:100D000049F4813209F005C147E050E064E071E048
:100D100080E0BBC0913209F0FCC0833269F48F8956
:100D2000988DA0E0B0E08093000190930101A09322
:100D30000201B093030164C0803269F48091E8003D
:100D400082FFFCCF67E084E091E00E9495028BEF88
:100D50008093E80055C0823209F052C08F89809399
:100D60000B01EEEFFFE7859194918B3F9C4D19F0BD
:100D7000E0E0F8E002C0EEEFFAE08091040190912B
:100D80000501A0910601B0910701803B9440A105A7
:100D9000B10509F09EC080910B0180FF79C099C018
:100DA0000E944401FC01028113810115110509F41F
:100DB000B0C0D801ED91FC910190F081E02DBE0111
:100DC0006B5E7F4FC801099581111AC0F80100853B
:100DD0001185EBCFF1E0FF1609F44EC0F3E0FF12EE
:100DE00098C08F89882309F44AC0823089F440E88A
:100DF0006CE087EA91E00E940702882309F489C029
:100E00008EEF8093E80088C018161906CCF381C0D5
:100E1000813029F440E86BE08BE991E0ECCF83303E
:100E200009F077C00E944401DC011296ED90FC901D
:100E300013978E010F5F1F4F6801E114F10479F0E1
:100E4000D701ED91FC910680F781E02DB801C70133
:100E50000995080F111DF701E084F184EECFD80148
:100E60001C92F60101900020E9F73197BF016C193F
:100E70007D0940E0C601BFCF69E871E002C065E8C6
:100E800071E0FB01449150E080E80E943C02B8CF41
:100E9000EE3F2AE0F20751F0808191818737A7E782
:100EA0009A0721F09093FF0A8093FE0A87E797E75D
:100EB0009183808380916000809351019BE088E161
:100EC0000FB6F894A895809360000FBE90936000D1
:100ED00097CF808191818737974709F091CFA89567
:100EE00080916000886180936000809151018093BF
:100EF0006000EE3FBAE0FB0739F08091FE0A909166
:100F0000FF0A918380837CCF1092FF0A1092FE0A21
:100F100077CF81E28093EB006C960FB6F894DEBF3A
:100F20000FBECDBFDF91CF91FF91EF91BF91AF91F8
:100F30009F918F917F916F915F914F913F912F91F1
:100F40001F910F91FF90EF90DF90CF900F900FBE09
:100F50000F901F9018951F920F920FB60F921124A9
:100F60002F933F934F935F936F937F938F939F93B1
:100F7000AF93BF93EF93FF9383EB91E00E9409033C
:100F8000FF91EF91BF91AF919F918F917F916F9161
:100F90005F914F913F912F910F900FBE0F901F9037
:100FA00018951F920F920FB60F9211242F938F93C3
:100FB0009F93EF93FF93E091C301F091C40180816F
:100FC000E091C901F091CA0182FD12C09081809127
:100FD000CC018F5F8F732091CD01821751F0E0918A
:100FE000CC01F0E0ED54FE4F958F8093CC0101C011
:100FF0008081FF91EF919F918F912F910F900FBE64
:101000000F901F9018951F920F920FB60F921124F8
:101010002F933F938F939F93AF93BF9380914501FD
:1010200090914601A0914701B0914801309144014F
:1010300023E0230F2D3720F40196A11DB11D05C01B
:1010400026E8230F0296A11DB11D20934401809331
:10105000450190934601A0934701B09348018091C8
:10106000490190914A01A0914B01B0914C01019628
:10107000A11DB11D8093490190934A01A0934B019A
:10108000B0934C01BF91AF919F918F913F912F9160
:101090000F900FBE0F901F901895E3E6F1E01382BA
:1010A000128288EE93E0A0E0B0E084839583A6836B
:1010B000B78327E131E0318320832FEF3FEF35877E
:1010C0002487E3EBF1E01382128284839583A68365
:1010D000B78389E291E0918380838DEC90E09587DE
:1010E00084878CEC90E09787868788EC90E0918BE2
:1010F000808B89EC90E0938B828B8AEC90E0958BCF
:10110000848B8EEC90E0978B868B118E128E138ED3
:10111000148E0895789484B5826084BD84B581600E
:1011200084BD85B5826085BD85B5816085BD8091B2
:101130006E00816080936E0010928100809181002A
:101140008260809381008091810081608093810022
:101150008091800081608093800080919100826006
:1011600080939100809191008160809391008091A3
:1011700090008160809390008091C1008460809392
:10118000C1008091C10082608093C1008091C10044
:1011900081608093C1008091C30081608093C3000F
:1011A0008091C00082608093C0008091C200816005
:1011B0008093C20080917A00846080937A0080914D
:1011C0007A00826080937A0080917A0081608093B7
:1011D0007A0080917A00806880937A001092620190
:1011E00010925201109254018091D7008160809337
:1011F000D70080EA8093D80089B5806189BD89B520
:10120000826089BD09B400FEFDCF61E070E080E03E
:1012100090E00E9439048091D8008F7C8061809397
:10122000D8008091E000807F8093E0008091E10011
:101230008E7E8093E1008DE08093E200559A209AA3
:10124000EEE2F1E02491EFE0F1E08491882399F05F
:1012500090E0880F991FFC01E950FF4FA591B491D0
:10126000FC01E751FF4F859194918FB7F894EC9171
:10127000E22BEC938FBFE091C301F091C40182E0B7
:101280008083E091BF01F091C0011082E091C10123
:10129000F091C2018FEC80831092CB01E091C701E5
:1012A000F091C80186E08083E091C501F091C6010C
:1012B000808180618083E091C501F091C6018081C9
:1012C00088608083E091C501F091C60180818068CB
:1012D0008083E091C501F091C60180818F7D80837C
:1012E00061E08AE00E94B00364E670E080E090E094
:1012F0000E94390460E08AE00E94B00364E670E076
:1013000080E090E00E94390448E050E067E371E03B
:1013100083EB91E00E94A20242E050E060E471E0C1
:1013200083EB91E00E94A20264E670E080E090E02E
:101330000E9439040E94A203D3CFF8940C94AB0905
:1013400081E090E0F8940C94AB09EE0FFF1F05903C
:0A135000F491E02D0994F894FFCF0A
:10135A00FFFFFFFF00E100000000000000C18081E4
:10136A00000000000000005801730479016E01BFFB
:10137A00017D019B01000000002A03A202CC027633
:10138A0003FD02DB02EF0268656C6C6F2070690076
:04139A000D0A000038
:00000001FF
